:020000040802F0
:10000000007F0020697E020851120208998B0308C4
:1000100053120208571202085B1202080000000087
:100020000000000000000000000000005F12020855
:100030006112020800000000E38A0308811102082F
:10004000817E0208817E0208817E0208591402081E
:10005000817E0208817E0208817E0208817E02087C
:10006000817E02089D120208817E0208817E0208BC
:10007000817E0208817E0208817E0208817E02085C
:10008000817E0208817E0208817E0208817E02084C
:10009000817E0208817E0208817E020859130208CF
:1000A000817E0208817E0208817E0208817E02082C
:1000B00067580608817E0208817E0208817E020858
:1000C000817E0208817E0208817E0208817E02080C
:1000D000817E02084B6D0208055A07089B12020830
:1000E000C1120208817E0208817E0208817E020818
:1000F000817E0208817E0208817E0208817E0208DC
:10010000817E0208193D0208817E0208817E020874
:10011000817E0208817E0208817E0208817E0208BB
:10012000BF580608817E0208817E0208213D020830
:10013000817E0208817E0208817E0208817E02089B
:10014000817E0208817E0208817E0208817E02088B
:10015000817E0208817E0208817E0208817E02087B
:10016000817E0208817E0208817E0208817E02086B
:10017000817E0208817E0208817E0208817E02085B
:10018000817E0208817E0208DFF80CD058F04AFB1D
:100190000048004773090208007F002010B504469C
:1001A00001F02BFE1EF052FD05F0CBFC01200CF0FF
:1001B000B5FA00BF08200CF02CFB0028FAD000F0A4
:1001C0000BFC10BD322018F075F836E0F8480078C6
:1001D00078BB022007F008FEF648007890B906F0D8
:1001E000E7FE0446152C09D106F0D5FF04462CB9CC
:1001F000142001F086FB0120EE4908700A2018F057
:1002000059F81AE0EC48007820B907F08CF9012081
:1002100018F050F806F05BFE0446162C0DD10020B5
:10022000E44908700A2018F045F80A2001F069FB3B
:1002300003E0FFE7642018F03DF8C7E72DE9F0413F
:1002400086B00546DD4903C9CDE90401DB4A083221
:1002500007CA01AB07C300272C4611E0207880288D
:1002600008DA9DF80E0000EBD07107EB61018FB248
:10027000641C05E09DF80E00384487B2641C641CC1
:1002800020780028EAD1BE20ADF810008C20ADF80F
:100290001200C820ADF814004FF49670ADF81600A7
:1002A000C749897F09B1C7A100E0CBA1084604A9CD
:1002B00044F07AFB06460196BDF81610A1EB07083C
:1002C00008EBD871C1F34F002B4601AA502105F06D
:1002D000CFFE304644F0F4FB06B0BDE8F08108B52F
:1002E00004E001226946BF4815F080FBF9E72DE9DB
:1002F000F047A2B082464FF48776B04A143207CA5C
:100300001EAB07C3AD4A203207CA1BAB07C31EA8EA
:100310001B904FF448704FF4F07100231A46CDE95A
:10032000001019461EA81EF0D5F84FF6FF724FF4C4
:100330007841002006F0C6FA03F0F1FD19F036FA14
:100340001BF06BFB00200346A7A2A8A10090A8A069
:100350001AF0B7F918B9A7A016F0C4FB02E0ACA0D8
:1003600016F0C0FB04F0B8FF4FF000080022114661
:10037000AEA01AF0C7FB80469422B04940461AF05E
:1003800012FC40461AF0EDFBAD4B0A2211461EA8A6
:1003900006F0B6FA8A48807FC0EB0010A74B03EB4B
:1003A00080028748807F08B1A6A000E0A8A001468F
:1003B00002A816F0F8FB02AB1BAA2821642005F066
:1003C00057FE7F48807F08B1A3A000E0A6A00346A7
:1003D0001BAA4621642005F04BFE7948807F08B1B6
:1003E000A5A000E0ACA003461BAA46214FF4C870AC
:1003F00005F03EFE7248807F08B1AFA000E0B8A0D3
:1004000003461BAA4FF4E1714FF4FA7005F030FE79
:100410001E980090BDF87E30BDF87C20BDF882109B
:10042000BDF8800001F0C7FE002046F04BF80546FD
:10043000002487E0C4EB0410642202EB400081B288
:100440002B461BAA0A2005F013FE284616F05FF87B
:100450000A2101EBC0000A301FFA80F8C4EB041037
:10046000642202EB400081B2544B2C331BAA40465D
:1004700005F0FEFDE0B246F092F80546C5B9C4EBC2
:100480000410642202EB400081B29BA31BAA4FF42C
:100490002F7005F0EDFD1E980090BDF87E30BDF880
:1004A0007C20BDF88210BDF8800001F084FE42E09F
:1004B000C4EB0410642202EB400081B290A31BAA9B
:1004C0004FF42F7005F0D4FD1E980090BDF87E30DB
:1004D000BDF87C20BDF88210BDF8800001F06BFEF5
:1004E0002846FFF7ABFE24E0E0B246F058F80500DE
:1004F0001FD1C4EB0410642202EB400081B27EA342
:100500001BAA4FF42F7005F0B3FD7FA31BAA4FF475
:10051000E171142005F0ACFD1E980090BDF87E300E
:10052000BDF87C20BDF88210BDF8800001F043FECC
:1005300000E0D9E700BF611C89B20C46C8B245F0A3
:10054000C1FF0546002D7FF475AF4FF448704FF49E
:10055000F07100231A46CDE9001019461EA81DF0BF
:10056000B9FF1E980090BDF87E30BDF87C20BDF824
:100570008210BDF8800001F01EFE00206C4908705A
:100580002F484FF6FF734FF47842822100904FF4CA
:10059000B47001F0C9FD674800234FF6FF724FF4B5
:1005A000E171009040F2262001F0BEFD0024CFE072
:1005B000801B0020000000200C000020C8A70708B6
:1005C000841F002053656C662D436865636B696EFC
:1005D0006720496E666F2000D7D4BCECD0C5CFA28F
:1005E00000000000541F0020656C6D002F0000000B
:1005F0007364300046696C652053797374656D20AF
:10060000696E697469616C697A6564210A00000029
:1006100046696C652053797374656D20696E6974E1
:10062000206661696C6564210A0000002F2F436F0A
:100630006E6669672E62696E00000000BD010020D1
:10064000F89B07084D6F64656C3A25730000000045
:10065000D0CDBAC53A2573005665723A2056312E70
:1006600030302E3038000000B0E6B1BE3A56312EA0
:1006700030302E30380000005765623A20687474BC
:10068000703A2F2F7777772E6373616C6C77696E72
:100690002E636F6D00000000CDF8D6B73A68747411
:1006A000703A2F2F7777772E6373616C6C77696E52
:1006B0002E636F6D000000004E414E4A494E4720A8
:1006C0004348414E475348454E4720494E535452A4
:1006D000554D454E5420434F2E2C4C5444000000A1
:1006E000C4CFBEA9B3A4CAA2D2C7C6F7D3D0CFDEA7
:1006F000B9ABCBBE000000005B4F4B2E5D0000008D
:100700005B4E472E5D00000020202020202020206E
:1007100020202020202020202020202020202020D9
:1007200020202020202020202020202020202000E9
:1007300001000020BBA107084FF6FF715E4A04F5D7
:10074000967022F81010104620F81410601C84B225
:10075000B4F5967FF0DB4FF487740DE01F21564A05
:1007600004F1140022F810100A3822F81010104674
:1007700020F81410601C84B2B4F58B7FEEDB1E20D1
:1007800001F0BFF84FF4967310224FF48C71FA20E9
:1007900001F08EFB02204FF0C04148800020012371
:1007A000464A47A10090494814F04FFF002001231A
:1007B000474A48A100904A4814F047FF14200321FB
:1007C0004FF400630022CDE90010464946A017F01F
:1007D00022FC8046B8F1000F02D0404617F0B9FB6A
:1007E00032E00A2221A9394815F000F978B9012030
:1007F000414908704FF0C84043154FF4F072002192
:100800000090084601F0D7FC22B0BDE8F087002434
:1008100010E0294800EB4609002706E039F8020BF2
:100820004FF0C0410880781C87B2B7F5967FF5DBA2
:10083000601C84B2102CECDB1E2E03DBA6F11E0024
:1008400086B201E04FF48776CBE71FB5142008216C
:100850000B020022CDE90010AFF2BF6127A017F014
:10086000DAFB044614B1204617F073FB05200F2174
:100870004FF48072234BCDE90032CDE90210002302
:10088000214A22A1234817F0F5FA224817F061FB0C
:10089000142005214FF400630022CDE900101E4909
:1008A0001EA017F0B8FB044614B1204617F051FB08
:1008B000002004B010BD00006428002002000020C9
:1008C000737461727475705F6D620000241F002084
:1008D000060000206D6F646275735F6D620000003A
:1008E000541F0020DF0202086D6F646275735F732E
:1008F00065727665000000000D000020696E697465
:1009000000000000A41D0020C50102086C656431D0
:1009100000000000A41E0020EF0202087374617240
:100920007475700004460D4615A016F0DBF82146DC
:100930001DA016F0D7F8294620A016F0D3F800BF66
:10094000FEE710B500F041FC13F004FD16F0CDFEFB
:1009500017F0BBFF1E491F4816F056FA17F070F843
:10096000FFF773FF17F0BDFF13F08EFF17F084F849
:1009700010BD10B518F09EF8FFF7E3FF002010BD82
:100980000A0D2057726F6E6720706172616D657419
:1009900065722076616C7565206465746563746545
:1009A00064206F6E0D0A0000202020202020206689
:1009B000696C65202025730D0A000000202020208E
:1009C0002020206C696E65202025640D0A0000003F
:1009D00000000220007F00203EB504F0A1FC4CF096
:1009E0008AFF012007F000FA06F066FA022007F0FD
:1009F000FBF906F061FAFE4890F8250020B10128C5
:100A000005D0022809D105E04FF4965408E04FF4D0
:100A1000165405E04FF4964402E04FF4165400BF1C
:100A200000BF204606F0D3F901A902A856F0C2FD86
:100A3000F0483123022200909DF80410029855F0EE
:100A400074FBEB4991F8240053F073F9EA4813F072
:100A5000B7FE3EBD1CB5012140F2FF100CF0C8FAF4
:100A6000012188030CF0B3FB0C220021E3480BF0BA
:100A700044FD0C220121E1480BF03FFD0C22022134
:100A8000DE480BF03AFD0C220321DC480BF035FD6B
:100A90000C220421D9480BF030FD0C220521D74847
:100AA0000BF02BFD0C221146D4480BF026FD0C2236
:100AB0000D21D2480BF021FD0C220E21CF480BF066
:100AC0001CFD0C220F21CD480BF017FD4FF23F000B
:100AD000009002208DF8040001208DF80500002010
:100AE0008DF8060001208DF807006946C3480BF019
:100AF000CBF90C220021C2480BF0FFFC0C22012193
:100B0000BF480BF0FAFC0C220221BD480BF0F5FCAB
:100B10000C220321BA480BF0F0FC0C220421B84847
:100B20000BF0EBFC0C220521B5480BF0E6FC3F2056
:100B300000906946B2480BF0A7F90C220B21B1488E
:100B40000BF0DBFC0C221146AE480BF0D6FC0C225D
:100B50000D21AC480BF0D1FC4FF460500090694679
:100B6000A8480BF091F90C220321A7480BF0C5FC13
:100B70000C220421A4480BF0C0FC18200090694608
:100B8000A1480BF081F90C220E219E480BF0B5FC18
:100B90000C220F219B480BF0B0FC0C22002199483D
:100BA0000BF0ABFC0C22012196480BF0A6FC4CF29A
:100BB00003000090694693480BF066F90C22072168
:100BC00091480BF09AFC0C2208218F480BF095FC01
:100BD0000C2209218C480BF090FC0C220A218A4837
:100BE0000BF08BFC0C220B2187480BF086FC0C22AF
:100BF000114685480BF081FC0C220D2182480BF038
:100C00007CFC0C220E2180480BF077FC0C220F217B
:100C10007D480BF072FC4FF68070009069467A4870
:100C20000BF032F90C22082176480BF066FC0C22FE
:100C3000092174480BF061FC0C220A2171480BF069
:100C40005CFC4FF4E060009069466E480BF01CF9C4
:100C50000C2207216B480BF050FC80200090694665
:100C600068480BF011F90C22092165480BF045FC8E
:100C70004FF400700090694661480BF005F90C22B2
:100C8000042160480BF039FC0C2205215D480BF073
:100C900034FC3020009069465A480BF0F5F84020AB
:100CA000009000208DF8040001208DF8060000203F
:100CB0008DF80700694653480BF0E6F84020009095
:100CC00000208DF804008DF8070069464F480BF0AE
:100CD000DBF800208DF8040001208DF806008DF867
:100CE00007008DF8050000030090694647480BF0A7
:100CF000CBF84FF460400090694645480BF0C4F8CB
:100D000001208DF8040000208DF806008DF8070002
:100D10004FF4E060009069463C480BF0B5F80420C1
:100D2000009069463B480BF0AFF800208DF80400B6
:100D300001208DF806008DF8070002208DF80500CF
:100D400080030090694631480BF09EF8082000901F
:100D5000694630480BF098F80F2100200FF052F947
:100D6000032108200FF04EF94FF40040009069462F
:100D700023480BF089F880200090694625480BF045
:100D800083F8072108200FF03DF9402000906946C4
:100D900020480BF079F8062108200FF033F94FF4C2
:100DA0008060009069461B480BF06EF80A2108200D
:100DB0000FF028F94FF480700090694615480BF049
:100DC00063F8082108460FF01DF94FF4C070009039
:100DD00069460B480BF058F8082106200FF012F96D
:100DE00001208DF8040000208DF8060014E00000BA
:100DF000841F00202B5B0708CF5A0708001402400D
:100E000000180240000C02400010024000000240A6
:100E1000001C0240002002408DF8070001208DF8E0
:100E200005004FF4E05000906946B1480BF02CF8F3
:100E3000012000906946AF480BF026F84FF480601F
:100E400000906946AC480BF01FF8102000906946EE
:100E5000AA480BF019F80C220821A9480BF04DFB09
:100E60000C220921A6480BF048FB0C220A21A448B9
:100E70000BF043FB0C220B21A1480BF03EFB0C2294
:100E800011469F480BF039FB0C2202219D480BF0C4
:100E900034FB4FF47060009001208DF805000220B3
:100EA0008DF8040000208DF8060001208DF8070061
:100EB000694693480AF0E8FF04200090694691488B
:100EC0000AF0E2FF4FF48050009001208DF80700F7
:100ED00069468B480AF0D8FF4FF40060009000206C
:100EE0008DF8040001208DF80700694681480AF05A
:100EF000CBFF01208DF8040000208DF806008DF84E
:100F0000070001208DF8050080200090694679488F
:100F10000AF0BAFF30200090694679480AF0B4FF21
:100F200020200090694675480AF0AEFF032000902B
:100F3000694675480AF0A8FF4FF4006000906946C2
:100F40006D480AF0A1FF00208DF8040004200090F5
:100F500069466D480AF098FF01208DF807000020CF
:100F60008DF8040040200090694665480AF08CFF27
:100F7000802160480BF0ABF9102161480BF0A7F914
:100F800020215F480BF0A3F920215C480BF09FF96A
:100F90001CBD00B5A1B0012108460CF07BF8002073
:100FA0000B900C900D900E900F90109011900420CB
:100FB0000490002005900820069001200790002052
:100FC000089009900A901290139014901020159098
:100FD000002016901790189019901A904FF4805096
:100FE0001B9000201C901D901E9004A81F900BA821
:100FF000209012A80AF004F8012100200AF0F8F964
:1010000003200B9000200C9002200D9001200E90E8
:1010100000200F9010901190022012900020139049
:101020001490159016901790189019901A904FF4EC
:1010300080501B9000201C901D901E900BA81F90AC
:10104000209012A809F0DCFF012102200AF0D0F95B
:101050000121C8020CF0BBF8012188050BF0C8FF84
:1010600003208DF8050000208DF8060001208DF882
:10107000070028208DF8040001A807F01CF80920BB
:101080008DF8040001A807F016F801208DF805007E
:1010900017208DF8040001A807F00DF8082106209C
:1010A0000EF0B0FF48F2C850029000208DF80C00FE
:1010B0000C208DF80D0001208DF80E00082009F09D
:1010C00040FF4FF4807009F03CFF4FF4004009F0FE
:1010D00038FF802009F035FF402009F032FF4FF43F
:1010E000806009F02EFF02A809F0E6FD21B000BDE6
:1010F000001802400000024000140240001C0240A0
:1011000000080240000C024000040240704730B565
:101110004FF0E020006920F001004FF0E02108616D
:10112000454800684FF47A72B0FBF2F1481EB0F106
:10113000807F00D31BE0481E4FF0E0225061501723
:101140000F22002807DA13071D0E3C4B00F00F0496
:10115000241F1D5503E013071C0E394B1C5400BF00
:1011600000204FF0E02290610720106100BF4FF097
:10117000E020006940F001004FF0E021086130BD3F
:1011800010B515F0D9F82F480068401C2D490860AB
:101190000A21B0FBF1F201FB120008B913F0E9F8E3
:1011A00056F0EBFB4CF0E9FD15F0D5F810BD01460B
:1011B00006E0002000E0401C44F61A129042FAD3E8
:1011C0000A00A1F10101F4D1704710B544F0B6FE58
:1011D00045F00CF845F003FE4BF07CFB4BF0A6FC11
:1011E0004BF0DEFE4AF061FB4BF032F84BF035FA83
:1011F000FFF78CFFFFF78BFF00F061F912A015F0ED
:10120000E6FCFFF727FCFFF7C4FE05F03AFD4FF4BC
:10121000FA60FFF7CCFF00F00EFF42F2107400BF3F
:1012200001F0CBFE2100A4F1010401D00028F7D188
:1012300002F0A9FF10BD00003806002018ED00E004
:1012400000E400E054020020756172743100000077
:10125000704700BFFEE700BFFEE700BFFEE7704734
:101260007047014606E0002000E0401C44F61A12D8
:101270009042FAD30A00A1F10101F4D1704701466E
:1012800005E0002000E0401CB0F57A7FFBD30A00A7
:10129000A1F10101F5D170477047704710B578484A
:1012A000007848B17748007918B91D21764814F0C4
:1012B00094FB032000F025FB082009F042FE10BD3E
:1012C00010B54FF4004009F0E6FDE0B16C4800783D
:1012D00050B16C48007918B91C216B4814F07DFBA3
:1012E000032000F00EFB0AE00220FFF7C8FF4FF4D6
:1012F000004166480AF0B2FE08B94CF0DCFC4FF43D
:10130000004009F01EFE4FF4806009F0C4FD08B3F0
:101310005F48006820F480605D490860081509F0A6
:1013200010FE4FF47A70FFF7AAFF4FF4806159481E
:101330000AF094FE30B15648006840F48060544989
:10134000086010BD4CF0B7FC5148006840F4806064
:101350004F49086000BFF4E710B54FF4807009F002
:101360009AFD78B34A48006820F4807048490860C4
:10137000881509F0E6FD0120FFF773FF4FF4807137
:1013800042480AF06BFE40B94BF0C0FF404800688D
:1013900040F480703E49086010BD4FF480713D48B4
:1013A0000AF05CFE40B94CF05CF83948006840F443
:1013B000807037490860EFE73548006840F4807076
:1013C00033490860802009F066FDF8B130480068B4
:1013D00020F080002E490860802009F0B2FD052031
:1013E000FFF74DFF80212B480AF038FE30B1284826
:1013F000006840F0800026490860CDE74CF05BFCB7
:101400002348006840F0800021490860402009F02E
:1014100042FDF8B11E48006820F040001C490860F9
:10142000402009F08EFD0220FFF729FF40211948D6
:101430000AF014FE30B11648006840F0400014492C
:101440000860A9E74CF065FC1148006840F04000D6
:101450000F49086000BF9FE710B54FF480400DF0C2
:1014600046FC60B14FF0AC410B4814F0B6FA4FF4B3
:1014700080400DF072FC4FF4800009F062FD10BD59
:101480000C000020841F0020F427002000180240D8
:10149000003C014000200240A056002070470CB5DF
:1014A00002208DF8040000208DF8060001208DF840
:1014B000070000208DF805000CBD7047704710B57F
:1014C000FFF7ECFFFFF7EBFFFFF7F7FFFFF7F6FF84
:1014D00010BD000000BF0100A0F10100FBD170476A
:1014E00070B54FF4004517F0E5FA0646A911FC481F
:1014F0000AF01EFF002421E04FF48071F8480AF042
:1015000017FFF8480088284205D04FF48061F4485E
:101510000AF0DDFE04E04FF48061F1480AF008FFB4
:101520000020FFF7D7FF4FF48071ED480AF0CFFE9F
:101530000020FFF7CFFF6D08601CC4B2102CDBDB6E
:101540004FF40071E6480AF0C2FE304617F0B6FAD2
:1015500070BD2DE9F04104460D4627462E46022D6A
:101560001FD1200C000412D0DF4800686040DE4923
:1015700008600846006810F4803F04D00421DB486E
:101580000AF0A5FE03E00421D8480AF0D1FEA4B277
:1015900034B1D44800886040D2490880FFF7A0FFEA
:1015A00029E0200C000417D01DB1CF48006820436B
:1015B00002E0CD480068A043CB49086008460068B7
:1015C00010F4803F04D00421C8480AF080FE03E0F4
:1015D0000421C6480AF0ACFEA4B25CB11DB1C148FA
:1015E0000088204302E0BF480088A043BD4908802E
:1015F000FFF776FF00BF00BFB7F5807F23D0B7F5B8
:10160000007F11D0B7F5803F2CD126B1012E06D036
:10161000022E06D104E0002045F0F7FB02E001E0D5
:1016200000E000BF00BF1EE016B1012E08D103E0AC
:10163000002045F0F7FB04E0012045F0F3FB00E05B
:1016400000BF00BF0FE016B1012E08D103E000205B
:1016500045F0F5FB04E0012045F0F1FB00E000BFA0
:1016600000BF00E000BF00BFBDE8F08110B500245E
:101670004FF480519A480AF0F1FC08B1012000E0D3
:10168000002004434FF4005199480AF0E7FC08B1E8
:10169000022000E0002004434FF4804194480AF007
:1016A000DDFC08B1042000E0002004434FF40041B9
:1016B0008F480AF0D3FC08B1082000E00020044362
:1016C000204610BD70B580250026002415E0854811
:1016D000008800F47F4083490880E843C0B209884D
:1016E000084380490880FFF7FBFEFFF7BFFFA1001A
:1016F000884006436D10601CC4B2082CE7DB16F16D
:10170000011F6DD033DC6FF08071A6EB01008E42BB
:1017100062D014DCB0F1794F70D009DCB0F1414FE8
:1017200075D0B0F1614F65D0B0F1714F68D151E023
:10173000B0F17D4F72D0B0F17F4F61D15CE06FF4BA
:101740008011701A8E4249D009DC10F5E00F7AD072
:1017500010F5401F68D010F5801F76D151E006F5D6
:101760008020401C67D0B0F5003F6ED14BE016F1F1
:10177000410F5BD018DC6FF48061A6EB01008E4254
:101780004ED009DC10F5705F43D010F5E05F3CD01F
:1017900010F5406F59D125E040F2012080193BD06F
:1017A000B0F5807F51D11FE016F1030F41D009DC65
:1017B00016F1210F36D016F1110F17D016F1050FC3
:1017C00043D13AE016F1020F12D06FF00040301A08
:1017D0003BD134E0012070BD0220FCE70320FAE792
:1017E0000420F8E70520F6E70620F4E70720F2E7F3
:1017F0000820F0E70920EEE70A20ECE721E006E008
:1018000023E00B20E7E70C20E5E70D20E3E70E20BF
:10181000E1E70F20DFE701E01020DCE71120DAE745
:101820001220D8E71320D6E71420D4E71520D2E7FA
:1018300009E01620CFE71720CDE71820CBE71920C5
:10184000C9E71A20C7E71B20C5E70020C3E700202F
:1018500028490875487528482849086001204871BA
:101860004FF4C8700881487900EBD0714910234AC1
:101870001171002011468872202008734020C87220
:101880008020487300208873C873704710B5FFF735
:10189000DEFF10BD1749497D164A50541146497D57
:1018A000491CC9B25175142901DB002151757047DB
:1018B0001048007D0F4A527D904201D100207047B0
:1018C0000C48007D0B4A115C1046007D401CC0B2E4
:1018D0001075142801DB002010750846EFE70000A2
:1018E00000000240580200205C020020002002405C
:1018F000001C0240DC270020C5160208CC2700206F
:10190000704710B50446FE480078C0F381000128F6
:1019100000D110BD01218802FFF71BFEF9480470B9
:1019200000BFF6E770B5044620688047C5B2FF2DBA
:1019300000D170BD002D46D020796179884202DA4D
:10194000607920715EE0207961794900884203DA8C
:101950002079401C207155E0A07A70B90120A07256
:10196000207B002809DD217B41EA0500FFF792FF7B
:10197000E54805600520FFF7C4FF2089002841DD08
:10198000E088218988420CDAE088401C80B2E0803F
:101990002189884236D1617B41EA0500FFF77AFF51
:1019A00030E0A07B00282DDDE07B401CC0B2E0735E
:1019B000A17B884226DB0020E073217B41EA050001
:1019C000FFF768FF1EE020796179884202DD6079C7
:1019D000207114E0207918B12079401E20710EE0AA
:1019E000A07A01280BD10020A072E07A002806DD41
:1019F000E17AC54A12681143C8B2FFF74BFF0020D5
:101A0000E080E07300BF94E710B5BD480078C0F3F4
:101A10008100012800D110BDBC48FFF783FF00BF43
:101A2000F9E71FB5BA4AD2E900109268CDE902027F
:101A3000019100201023B74AB7A10090B84813F0D5
:101A400004FE1BE1B748407900287DD14BF0F8FF38
:101A50000028FAD1FFF7D8FFFFF72AFF0546002D2F
:101A600072DD05F01F04282D11D1AE48007980F0F9
:101A70000100AC4908710846007940F0A241AA482B
:101A800013F0ABFFA748007C08B103F0D5FBA548D5
:101A900000790028D9D1022C7EDB072C7CDC15F0E4
:101AA000200F68D0A1480078002864D1A01E8021B2
:101AB00041FA00F09E49097808425CD101209B4917
:101AC00008709C4A1368A21E40F2ED3612FB06F223
:101AD00003EB02104FF0C8424BF680331A4402F574
:101AE0001642954B1A44954BD118320114F09DFCC7
:101AF0008C49897F01EBC10202EB0111904A02EB94
:101B00000111904A127802EB820201EBC202A11E7F
:101B100052F8210014F0FBFC00EB40007821A1EB0F
:101B20008000C0F34F067F48807F00EBC00202EBCD
:101B30000010834A02EB0010824A127802EB820204
:101B400000EBC202A01E00E07DE052F8203000EB66
:101B5000400202EB8010173081B201AA304604F037
:101B600087FA4FF04051704813F037FF29466C4810
:101B700013F033FF6CE06D480078012868D1A01E97
:101B8000802141FA00F06A490978084260D10020BA
:101B900066490870674A00E056E01368A21E40F2EA
:101BA000ED3612FB06F203EB02104FF0C8424BF683
:101BB00080331A4402F516425F4B1A44624BD11827
:101BC000320114F032FC5749897F01EBC10202EB6C
:101BD00001115B4A02EB01115A4A127802EB8202B0
:101BE00001EBC202A11E52F8210014F090FC00EBA0
:101BF00040007821A1EB8000C0F34F064948807F68
:101C000000EBC00202EB00104D4A02EB00104D4AFF
:101C1000127802EB820200EBC202A01E52F82030C2
:101C200000EB400202EB8010153081B201AA304671
:101C300004F01EFA4FF040513B4813F0CEFE294607
:101C4000374813F0CAFE03E02946354813F0C5FEB5
:101C50002C48007800280CDD2A480078401E10F03F
:101C6000FF002849087004D100214FF48060FFF77D
:101C700070FC012016F01EFBFFF732FCE2E610B507
:101C800004461F480078C0F38100012800D010BD31
:101C900044B900214FF48060FFF75BFC0020194934
:101CA0000870F4E701218802FFF753FC154804701F
:101CB00000BFECE7FEB50546154A0C32D2E900102C
:101CC0009268CDE90102009119480570002444E0B2
:101CD0004FF0C8424BF680331A4402F51642164BB9
:101CE0001A4443F6D06313FB04204FF0C8424BF66E
:101CF00080331A4402F516420F4B1A44124B25E06A
:101D0000A05A00208405002088050020CC27002050
:101D100038A80708242800206B65795F6D620000F1
:101D2000F4270020841F0020A0560020600200201D
:101D30008C050020C0070020A0570800B0B70100A4
:101D4000640200200C000020E0780100D11843F666
:101D5000D06214F06AFB601CC4B2062CB8DB00240D
:101D600043E080202041284204D04AF21450ADF8CC
:101D7000040003E04FF6FF70ADF804002A49897FA4
:101D800001EBC10202EB0111284A02EB0111284AC2
:101D9000127802EB820201EBC20151F8240014F028
:101DA000B6FB00EB40007821A1EB8000C0F34F06AA
:101DB0001D48807F00EBC00202EB00101B4A02EBC3
:101DC00000101B4A127802EB820200EBC20050F8AE
:101DD000243004EB440000EB841000F115016A4646
:101DE000304604F045F9601CC4B2062CB9DB4FF054
:101DF0004051104813F0F1FDFEBD1CB5FFF746FD44
:101E00000A2000904FF4007300220B4901900BA0B0
:101E100016F001F90A4908600846006818B108463A
:101E2000006816F096F81CBD841F00206402002094
:101E30000C000020A0560020231A02086B657900D0
:101E400090050020002001E0411CC8B20A28FBDBFD
:101E50007047002001E0411C88B241F2883188427D
:101E6000F9DB70474FF0C041488070474FF0C041E8
:101E70000880704770B505460C462846FFF7F2FF0C
:101E80002046FFF7F3FF70BD70B504460D46E1B282
:101E90004620FFF7EFFF21124720FFF7EBFFE9B2E3
:101EA0004820FFF7E7FF29124920FFF7E3FF70BD45
:101EB0002DE9F04104460D4617469846E1B2302020
:101EC000FFF7D8FF21123120FFF7D4FFE9B232200B
:101ED000FFF7D0FF29123320FFF7CCFF08EB0400F7
:101EE000401E86B2F1B23420FFF7C4FF3112352014
:101EF000FFF7C0FF7819401E86B2F1B23620FFF717
:101F0000B9FF31123720FFF7B5FF29462046FFF70A
:101F1000BBFFBDE8F0814FF0C0414988C8B27047AF
:101F20002DE9F04105460C4616461F46DDF818809F
:101F3000E9B25820FFF79EFF29125920FFF79AFFB8
:101F4000E1B25A20FFF796FFB8F1000F04D1211239
:101F50005B20FFF78FFF05E0802040EA24215B2013
:101F6000FFF788FFF9B25C20FFF784FF39125D208C
:101F7000FFF780FFF1B25E20FFF77CFF31125F2098
:101F8000FFF778FFBDE8F08110B5044621465120E7
:101F9000FFF770FF10BD10B50446E10A6320FFF79C
:101FA00069FFC4F345116420FFF764FF04F01F01CB
:101FB0006520FFF75FFF10BD10B55020FFF752FFFF
:101FC0008020FFF753FF10BD00B500BFFFF7A3FF50
:101FD00000F040004028F9D000BD38B5044600208C
:101FE0004FF448734FF4F07201460090FFF798FFEA
:101FF0000C20FFF7C9FF2046FFF7CDFFFFF7DCFFFE
:10200000FFF7E2FF38BD10B5044624B900218A204D
:10201000FFF730FF0EE0FF2C04D140218A20FFF7AC
:1020200029FF07E08C218A20FFF724FF21468B201F
:10203000FFF720FF10BD10B5002402E0FFF709FFF5
:10204000641CC82CFAD38820FFF70CFFFFF7FAFEB8
:102050000C20FFF70BFFFFF7FCFE8920FFF702FFC4
:10206000FFF7F0FE0220FFF701FFFFF7F2FE0A2163
:102070001020FFF7FFFE81210420FFF7FBFEFFF792
:10208000E8FE63211420FFF7F5FE00211520FFF77D
:10209000F1FE03211620FFF7EDFE03211720FFF7C5
:1020A000E9FE0B211820FFF7E5FEDF211920FFF7DD
:1020B000E1FE01211A20FFF7DDFE1F211B20FFF7A3
:1020C000D9FE00211C20FFF7D5FE16211D20FFF7A9
:1020D000D1FE00211E20FFF7CDFE01211F20FFF7BA
:1020E000C9FE08212020FFF7C5FE0121C720FFF708
:1020F000C1FE80210120FFF7BDFE00214020FFF737
:10210000B9FE00214120FFF7B5FE4FF448734FF4AC
:10211000F07200210846FFF7CBFE0020FFF75DFFBD
:10212000FF20FFF770FF10BD2DE9FF4F83B09046F1
:102130009946109DB5F800B06F88281D0290F81DD3
:10214000C11700EB5171C1F3C70101913B465A46DB
:10215000DDE90301FFF7ACFE0220FFF783FE002656
:1021600024E0DDE9012006FB020100241AE0E21769
:1021700004EB5272D210B4EBC20201D111F801ABE0
:102180001AF0800F04D04FF0C040A0F8008003E0A8
:102190004FF0C040A0F800904FEA4A404FEA104A82
:1021A000601C84B2BC42E2DB701C86B25E45D8DBA8
:1021B00007B0BDE8F08F2DE9F0412DED028B074609
:1021C000884615461C469DED088A15F00EFD2346EF
:1021D0002A4641463846FFF76BFE0220FFF742FED3
:1021E00018EE106A002219E03949002005E036F89F
:1021F000023B21F8023B431C98B2A042F7DB344972
:10220000002007E031F8023B4FF0C04CACF8003042
:10221000431C98B2A042F5DB531C9AB2AA42E3DBFE
:1022200015F0F1FCBDEC028BBDE8F0812DE9F05F0B
:1022300005460C466088E9884843296801EB400060
:10224000218800EB4108E888E188401A1FFA80FAEB
:1022500015F0CBFCB5F80AC0B4F802B0DC441FFAA4
:102260008CF1B5F808C0B4F800B0DC441FFA8CF06B
:10227000E388A288FFF71CFE0220FFF7F3FD4FF072
:1022800000091EE0124F002605E038F8020B27F87F
:10229000020B701C86B2E088B042F6DC0C4F0026C0
:1022A00006E037F8020B4FF0C0410880701C86B280
:1022B000E088B042F5DC08EB4A0809F101001FFA9A
:1022C00080F9A0884845DDDC15F09DFCBDE8F09F55
:1022D000642800201CB500200CF0CAFD00200CF082
:1022E000D5FD0CF05BFD00214FF400600AF06FFF9C
:1022F00000220821FC480AF000F900220921FA48CE
:102300000AF0FBF800220A21F7480AF0F6F800224A
:102310000B21F5480AF0F1F800220C21F2480AF0EE
:10232000ECF800220221F1480AF0E7F84FF470605F
:10233000009000208DF804008DF807006946EA48F7
:1023400009F0A2FD042000906946E84809F09CFDD0
:102350004FF4805000906946E34809F095FD1CBD9C
:1023600010B5FFF7B7FF10BD2DE9F0410646002775
:10237000DF48056801E0DE48056815F0450FFAD032
:1023800015F0040F06D0032704200CF0BCFF3846DC
:10239000BDE8F08115F0010F05D0012701200CF0F8
:1023A000B2FF3846F4E70CF0D7FDB04202D0102758
:1023B0003846EDE740F2FF500CF0A5FF00200CF08E
:1023C000D0FD0446CB48044201D13846E0E714F082
:1023D000004F01D01C20DBE714F0804F01D0092012
:1023E000D6E714F0005F01D00A20D1E714F0805F37
:1023F00001D00B20CCE714F0006F01D00C20C7E710
:1024000014F0806F01D00D20C2E714F0807F01D05E
:102410000E20BDE714F4000F01D00F20B8E714F42C
:10242000800F01D01020B3E714F4001F01D0112059
:10243000AEE714F4801F01D01220A9E714F4002F96
:1024400001D01320A4E714F4802F01D014209FE7BB
:1024500014F4003F01D015209AE714F4803F01D016
:10246000162095E714F4004F01D0172090E714F4DC
:10247000804F01D018208BE714F4005F01D01920A1
:1024800086E714F0080F01D01A2081E738467FE76D
:102490002DE9FC4107460D4600260024002000904F
:1024A000019008209449086010204860402088600E
:1024B0000020C8604FF48060086108460CF0FBFC07
:1024C0001020FFF751FF044614B12046BDE8FC81FF
:1024D0008A48006800048849086037204860402026
:1024E00088600020C8604FF48060086108460CF0E6
:1024F000E2FC3720FFF738FF04460CB12046E5E741
:102500004FF0FF307E490860082048603020886026
:102510000220C860002008610120486108460CF0D4
:1025200035FD0020744908603320486040208860F1
:102530000020C8604FF48060086108460CF0BBFCC6
:102540003320FFF711FF04460CB12046BEE709E037
:102550004FF400100CF083FE20B10CF09CFD4DF800
:102560002600761C6248006840F22A610842EFD0DB
:1025700008200CF074FE28B108200CF0C4FE0424DE
:102580002046A3E702200CF06AFE28B102200CF0DE
:10259000BAFE0224204699E720200CF060FE28B104
:1025A00020200CF0B0FE062420468FE74FF4007088
:1025B0000CF055FE30B14FF400700CF0A4FE07246F
:1025C000204683E740F2FF500CF09DFE0098000685
:1025D000009901F47F4140EA0120009901F47F0154
:1025E00040EA1120009940EA1160686001980006F5
:1025F000019901F47F4140EA0120019901F47F0132
:1026000040EA1120019940EA1160286020465DE708
:102610007CB5054600240020009001900CF0A1FC40
:1026200010F0007F02D00E2420467CBD694633485E
:10263000006880B2FFF72CFF04460CB12046F4E797
:10264000012D35D1019810F4802F2ED02B48006831
:102650000004294908603720486040208860002035
:10266000C860A802086108460CF025FC3720FFF777
:102670007BFE04460CB12046D7E702201E490860C5
:1026800006204860402088600020C8604FF48060C9
:10269000086108460CF00FFC0620FFF765FE0446B3
:1026A0000CB12046C1E72046BFE725242046BCE701
:1026B000019810F4803F3DD01048006800040E4996
:1026C000086037204860402088600020C8604FF4D0
:1026D0008060086108460CF0EEFB3720FFF744FEEF
:1026E00004467CB12046A0E700080240000C0240EE
:1026F000342C014008E0FFFD482F00209805002001
:102700005C2F00200020FE49086006204860402021
:1027100088600020C8604FF48060086108460CF0B3
:10272000CAFB0620FFF720FE04460CB120467CE7DA
:1027300020467AE72524204677E770B50446002531
:10274000F0480068032802D12725284670BDED48CF
:10275000006838B1EB480068012803D0E9480068F8
:1027600002282CD1B4F5805F02D127252846EDE759
:10277000B4F5006F13D10120FFF74AFF0546F5B904
:102780000020E14908750860486088604FF40060E7
:10279000C8600020086108460CF00BFB0FE0002029
:1027A000FFF736FF054655B90020D7490875086080
:1027B00048608860C860086108460CF0FAFA28464C
:1027C000C4E770B504460025CD4804600720CC4915
:1027D0004860402088600020C8604FF48060086135
:1027E00008460CF068FB0720FFF7BEFD05462846AB
:1027F00070BDF0B5014600200022C24B1B6881F875
:102800005630C24B1B68A1F85430C14B1B681A0EDE
:1028100093090B70C2F383034B7002F003038B70B8
:10282000BB4B1B68C3F30742CA70B94B1B68C3F3A9
:1028300007220A71B64B1B68DAB24A71B44B5B6867
:102840001A0E1301CB80B24B5B68C3F30742CB88EF
:1028500043EA1213CB8002F00F030B72AC4B5B68A0
:10286000C3F30722D3094B72C2F380138B72C2F3F6
:102870004013CB72C2F300130B7300234B73A14BB5
:102880001B681BB19F4B1B68012B50D193071B0D7D
:102890000B619F4B5B68DAB20B6943EA82030B6101
:1028A0009B4B9B681A0E0B6943EA92130B61C2F3B0
:1028B000C2030B7502F007034B75954B9B68C3F37E
:1028C000074253098B75C2F38203CB7593075B0FE5
:1028D0000B768F4B9B68C3F307220B7E43EAD21320
:1028E0000B760B695B1C0024C1E912340B7ED1E925
:1028F00012649B1C012505FA03F3DD17A6FB037C7C
:1029000004FB03C306FB0533C1E912730C7A0123F0
:10291000A3400B650025D1E912460B6DA4FB037C97
:1029200006FB03C304FB0533C1E912732EE0754BAC
:102930001B68022B2AD1764B5B68DAB293069B0A9E
:102940000B61734B9B681A0E0B6943EA02230B6100
:102950006F4B9B68C3F307420B6913430B616C4BCE
:102960009B68C3F307220B695B1C4FF40074A3FB45
:10297000046564000027A6FB043C05FB04C406FBB9
:102980000744C1E912344FF400730B65C2F380139E
:1029900001F8193F93065B0E4B705D4B9B68DAB2F2
:1029A0004B7843EAD2134B7002F07F038B70584B85
:1029B000DB681A0ED309CB70C2F341130B71C2F35B
:1029C00082034B7193071B0F8B71514BDB68C3F371
:1029D00007428B7943EA92138B71C2F34013CB7198
:1029E00000230B7202F001034B72494BDB68C3F307
:1029F0000722D3098B72C2F38013CB72C2F3401348
:102A00000B73C2F300134B73C2F381038B7302F099
:102A10000303CB733E4BDB68DAB253080B7401231C
:102A20004B743C4B1B681A0ECA74A1F11901394B47
:102A30001B68C3F307424FEA0224CC85354B1B6861
:102A4000C3F30722CB8D43EA0203CB85314B1B68CE
:102A5000DAB24FEA02640C632E4B5B684FEA1362F2
:102A60000B6B43EA02440C632A4B5B68C3F30742D7
:102A70000B6B43EA02240C63264B5B68C3F307220B
:102A80000B6B43EA02030B63224B5B68DAB24FF035
:102A900034035A541F4B9B684FEA13624FF03503BF
:102AA0005A541C4B9B68C3F307424FEA02648C6381
:102AB000184B9B68C3F307228B6B43EA02448C6379
:102AC000144B9B68DAB28B6B43EA02248C63114B84
:102AD000DB684FEA13628B6B43EA02038B630D4B97
:102AE000DB68C3F307424FF03C035B5C43EA12141C
:102AF0004FF03C035C544FEA02734FEA13540BE06F
:102B0000482F002094050020302F00209805002039
:102B1000A82E0020B82E0020CC87F74BDB68C3F32B
:102B20000722CB8F43EA0203CB87F34BDB68DAB291
:102B30004FEA52044FF040035C544FF001044FF051
:102B400041035C54F0BD70B50025EC48046801E019
:102B5000EA48046814F0450FFAD014F0040F05D0C9
:102B6000032504200CF0CFFB284670BD14F0010FA4
:102B700005D0012501200CF0C6FB2846F5E740F200
:102B8000FF500CF0C0FB2846EFE72DE9F041064668
:102B90000F464FF00008D948056801E0D74805689E
:102BA00015F0450FFAD015F0040F07D04FF00308C9
:102BB00004200CF0A8FB4046BDE8F08115F0010FA1
:102BC00006D04FF0010801200CF09DFB4046F3E7D2
:102BD0000CF0C2F9B04203D04FF010084046EBE7CA
:102BE00040F2FF500CF08FFB00200CF0BAF90446C5
:102BF00014F4604F03D1200C38804046DCE714F415
:102C0000005F01D01320D7E714F4804F01D01020CB
:102C1000D2E714F4004F01D00F20CDE74046CBE7B8
:102C200038B50024012000900CF03FF910B925249C
:102C3000204638BDB2480068042828D00020B14999
:102C4000086002204860C02088600020C8604FF4FF
:102C50008060086108460CF02EF9FFF774FF044607
:102C60000CB12046E5E700200CF07BF9A249086092
:102C700004200CF076F9A049486008200CF071F9A6
:102C80009D4988600C200CF06CF99B49C8609C48F9
:102C9000006858B19A480068012807D09848006831
:102CA000062803D096480068022816D100209549CE
:102CB000086003204860402088600020C8604FF40E
:102CC0008060086108460CF0F6F869460320FFF7BB
:102CD0005CFF04460CB12046ABE789480068042835
:102CE0002ED0BDF8000088490860BDF8000000043F
:102CF0008449086009204860C02088600020C860BE
:102D00004FF48060086108460CF0D5F8FFF71BFF10
:102D100004460CB120468CE700200CF022F97B49D8
:102D2000086004200CF01DF97849486008200CF078
:102D300018F9764988600C200CF013F97349C860C3
:102D40000024204675E770B500256C48046801E052
:102D50006A48046814F0450FFAD014F0040F05D047
:102D6000032504200CF0CFFA284670BD40F2FF5036
:102D70000CF0C9FA2846F8E770B500264FF48055E4
:102D80005E48046802E06D1E5C48046814F0450F5C
:102D900001D1002DF7D115B114F0040F05D0032691
:102DA00004200CF0B0FA304670BD14F0400F05D08E
:102DB000002640200CF0A7FA3046F5E73046F3E74E
:102DC00070B500254FF4805400E0641E24B18020CB
:102DD0000CF045FA0028F8D014B90325284670BD38
:102DE00040F2FF500CF08FFA2846F8E72DE9F04149
:102DF0000024002600250027A046762044490875B7
:102E00000020086048608860C860086108460BF0D0
:102E1000D0FF03200CF03AF801200CF029F8002034
:102E20003849086048608860C8604FF48060086175
:102E300008460CF040F8FFF7C3FF044614B12046E3
:102E4000BDE8F0814FF4D5702E4908600820486035
:102E5000402088600020C8604FF480600861084608
:102E60000CF029F8FFF788FF04462CB9012024490B
:102E700008604FF0804812E00020224908603720A7
:102E80004860402088600020C8604FF4806008617E
:102E900008460CF010F83720FFF766FA04460020C9
:102EA0001849086037204860402088600020C860CA
:102EB0004FF48060086108460BF0FDFF3720FFF7F4
:102EC00053FA0446002C59D145E000200D49086012
:102ED00037204860402088600020C8604FF4806040
:102EE000086108460BF0E7FF3720FFF73DFA04467C
:102EF00084B12046A4E70000B82E0020342C014005
:102F000094050020482F002098050020A82E0020BE
:102F1000302F0020FB4848EA0000FB4908602920C8
:102F20004860402088600020C8604FF480600861DD
:102F300008460BF0C0FFFFF706FF04460CB1204621
:102F40007EE700200CF00DF80646012080EAD670DE
:102F500080F001076D1C1FB94FF6FF708542B4D396
:102F60004FF6FF70854202D31B24204668E706F027
:102F70008040060002D00220E449086020465FE756
:102F800008B54FF4C06005F07BF831208DF80000E3
:102F900000208DF801008DF8020001208DF803005B
:102FA000684605F088F83B208DF8000001208DF878
:102FB0000100684605F07FF808BD10B50024FFF752
:102FC000DFFF0BF0EBFEFFF711FF04460CB12046CC
:102FD00010BDFFF725FE04460CB12046F8E700209F
:102FE000CB490875086048608860C8600861084679
:102FF0000BF0DFFEC748FFF7FCFB044634B9C549B8
:10300000B1F854100804FFF7DCFB044624B94FF470
:103010000060FFF792FB04462046D9E770B50446EE
:10302000002514B92625284670BDBB480068000459
:10303000B54908600D204860402088600020C860C5
:103040004FF48060086108460BF035FF0D20FFF754
:103050008BF905460DB12846E6E700200BF081FF0D
:1030600020602846E0E710B50124E102AB4808F0F3
:10307000F5FF00B10024204610BD08B500200090E7
:10308000FFF7F1FF012809D16846FFF7C7FF08B134
:10309000FF2008BD0098C0F34320FAE7FF20F8E7BF
:1030A00010B50424FFF7E9FF0446042C01D10020E9
:1030B00010BDFF2C01D10220FAE70120F8E710B57E
:1030C000002400200BF0E2FE204610BD70B504463F
:1030D0000026002500200BF044FF10F0007F02D0F6
:1030E0000E26304670BD4020874908601020486099
:1030F000402088600020C8604FF480600861084666
:103100000BF0D9FE1020FFF72FF906460EB130461E
:10311000E8E78148006800047B4908603720486080
:10312000402088600020C8604FF480600861084635
:103130000BF0C1FE3720FFF717F906460EB13046F7
:10314000D0E74FF0FF3076490860402048606020AB
:1031500088600220C860002008610120486108469C
:103160000BF014FF0020684908600D2048604020E3
:1031700088600020C8604FF48060086108460BF04A
:103180009AFE0D20FFF7F0F806460EB13046A9E78B
:103190000EE04FF400400CF062F848B1002504E066
:1031A0000BF079FF44F825006D1C082DF8D320346E
:1031B0005C48006840F22A610842EAD008200CF01E
:1031C0004EF828B108200CF09EF80426304689E716
:1031D00002200CF044F828B102200CF094F80226EA
:1031E00030467FE720200CF03AF828B120200CF080
:1031F0008AF80626304675E74FF400700CF02FF879
:1032000030B14FF400700CF07EF80726304669E7C5
:103210004FF0FF3504E00BF03EFF2060241D6D1ED3
:103220004FF400100CF01BF808B1002DF3D140F260
:10323000FF500CF068F8304654E770B5044600269D
:1032400000253948FFF742FF06460EB1304670BDF3
:10325000354800788509257033480078C0F340155B
:10326000657031488578280260802F48C57860886D
:10327000284360802C480579280660602A484579F3
:10328000606840EA0540606027488579606840EAE8
:10329000052060602448C579606828436060224842
:1032A000057A2572457A6572807A0509A5721E48ED
:1032B000C57A2802A0811C48057BA0892843A081EB
:1032C0001948407B8508A5731748407B00F003052B
:1032D000E5733046BBE710B5002400200A490860BA
:1032E0000C204860402088600020C8604FF4806057
:1032F000086108460BF0DFFD0C20FFF735F80446A7
:10330000204610BD00001080482F002094050020AA
:10331000302F0020D82E0020980500200000024009
:103320005C2F0020342C0140C82E002070B50025F1
:103330004FF4803400E0641EFE48006838B9FE484F
:10334000006820B9FD48007808B9002CF3D10020AE
:10335000F8490860441E00E0641EF948006810F453
:10336000005F01D0002CF7D1F6480068012805D194
:10337000FFF7B1FF05460020F24908600CB905B916
:10338000042540F2FF500BF0BEFFEC48007810B16E
:10339000EA48007870BD2846FCE730B58FB0044697
:1033A0000D464FF0FA51E84807F0AAF90021E64827
:1033B00006F004FDE44806F093FA4FF00060009038
:1033C000DF484C300190029400200390A80804903C
:1033D000002005904FF480600690800007908000E8
:1033E0000890002009904FF440300A9004200B9080
:1033F00003200C904FF400000D9080100E90694651
:10340000D14806F054FB01221021CF4807F0E6F91D
:103410002021CD4806F08DFD0121CB4806F0CEFCE1
:103420000FB030BD2DE9F04107460D461446002689
:103430000020C2490870C0490860C2490860C049FC
:1034400008390860C1480068022801D104026D0AE9
:10345000BF4804601020BE494860402088600020BA
:10346000C8604FF48060086108460BF024FD10200E
:10347000FEF77AFF064616B13046BDE8F0814FF000
:10348000FF30B449086008464460902088600220FC
:10349000C860002008610120486108460BF076FDF5
:1034A000AB4805601120AA49486040208860002090
:1034B000C8604FF48060086108460BF0FCFC1120E6
:1034C000FEF752FF06460EB13046D6E7012140F224
:1034D0002A300BF09FFE01200BF05EFE214638469D
:1034E000FFF75BFFFFF722FF3046C6E72DE9F0410B
:1034F00080460D4614461E46002700208F4908705E
:103500008D49086001208F49086000208C490839E6
:1035100008608E480068022801D104026D0A8C48B8
:10352000046010208A494860402088600020C860FC
:103530004FF48060086108460BF0BDFC1020FEF7D8
:1035400013FF074617B13846BDE8F0814FF0FF3052
:103550008049086006FB04F04860902088600220E3
:10356000C860002008610120486108460BF00EFD8C
:103570007748056012207649486040208860002026
:10358000C8604FF48060086108460BF094FC12207C
:10359000FEF7EAFE07460FB13846D5E7012140F2B3
:1035A0002A300BF037FE01200BF0F6FD06FB04F18C
:1035B0004046FFF7F2FEFFF7B9FE3846C4E770B5A4
:1035C00000256C1E00E0641E5A48006838B95A484D
:1035D000006820B95948007808B9002CF3D10020C0
:1035E00054490860441E00E0641E5548006810F409
:1035F000805F01D0002CF7D152480068012805D126
:10360000FFF769FE054600204E4908600CB905B970
:10361000042540F2FF500BF076FE4848007810B1C8
:103620004648007870BD2846FCE730B58FB00446A8
:103630000D464FF0FA51444807F062F80021424825
:1036400006F0BCFB404806F04BF94FF000600090DC
:103650003B484C300190029440200390A80804900D
:10366000002005904FF48060069080000790800055
:103670000890002009904FF440300A9004200B90ED
:1036800003200C904FF400000D9080100E906946BE
:103690002D4806F00CFA012210212B4807F09EF865
:1036A0002021294806F045FC0121274806F086FB29
:1036B0000FB030BD2DE9F04107460D4614460026F7
:1036C00000201E4908701C4908601E4908601C49FA
:1036D000083908601D480068022801D104026D0AFB
:1036E0001B48046010201A49486040208860002070
:1036F000C8604FF48060086108460BF0DCFB1020C6
:10370000FEF732FE064616B13046BDE8F08110489D
:10371000056018200E494860402088600020C8607D
:103720004FF48060086108460BF0C5FB1820FEF7D7
:103730001BFE11E0A8050020A4050020A005002024
:10374000342C01409C050020586402409405002060
:10375000482F00205C2F002006460EB13046D4E7EB
:103760004FF0FF30FE4908600846446090208860B2
:103770000020C86008610120486108460BF006FC83
:10378000012140F22A300BF045FD21463846FFF773
:103790004CFF01200BF000FDFFF711FF3046B4E7AE
:1037A0002DE9F04180460F4615461E4600240020B4
:1037B000EC490870EC4908600120EC4908600020E1
:1037C000EB490860EB480068022801D105027F0A36
:1037D000E94805601020E8494860402088600020E2
:1037E000C8604FF48060086108460BF064FB10204D
:1037F000FEF7BAFD044614B12046BDE8F081DF486B
:1038000000680004DC490860372048604020886078
:103810000020C8604FF48060086108460BF04BFB45
:103820003720FEF7A1FD04460CB12046E5E7D2485B
:1038300006601720D0494860402088600020C8609A
:103840004FF48060086108460BF035FB1720FEF747
:103850008BFD04460CB12046CFE7C748076019200E
:10386000C5494860402088600020C8604FF48060EF
:10387000086108460BF01FFB1920FEF775FD044692
:103880000CB12046B9E74FF0FF30B549086006FBA0
:1038900005F04860902088600020C8600861012021
:1038A000486108460BF072FB012140F22A300BF010
:1038B000B1FC01200BF070FC06FB05F14046FFF760
:1038C000B4FEFFF77CFE204697E7A9480830006861
:1038D00010F4405F01D0012070470020FCE72DE983
:1038E000F0410646002700240025A4480068000493
:1038F000A14908600D204860402088600020C86011
:103900004FF48060086108460BF0D5FA98480830FB
:10391000056802E096480830056815F0450FF9D0B3
:1039200015F0040F06D0032704200BF0ECFC3846FA
:10393000BDE8F08115F0010F05D0012701200BF043
:10394000E2FC3846F4E70BF007FB05460D2D02D0EC
:1039500010273846ECE740F2FF500BF0D4FC002073
:103960000BF0FFFA0446C4F343203070844804424D
:1039700001D13846DCE714F0004F01D01C20D7E716
:1039800014F0804F01D00920D2E714F0005F01D07D
:103990000A20CDE714F0805F01D00B20C8E714F0B7
:1039A000006F01D00C20C3E714F0806F01D00D2010
:1039B000BEE714F0807F01D00E20B9E714F4000FA9
:1039C00001D00F20B4E714F4800F01D01020AFE72E
:1039D00014F4001F01D01120AAE714F4801F01D0B5
:1039E0001220A5E714F4002F01D01320A0E714F44F
:1039F000802F01D014209BE714F4003F01D0152044
:103A000096E714F4803F01D0162091E714F4004F9C
:103A100001D017208CE714F4804F01D0182087E7DD
:103A200014F4005F01D0192082E714F0080F01D0D0
:103A30001A207DE738467BE72DE9F84306460F4616
:103A400000240025A046002000904E484068202118
:103A500011EA105F03D125242046BDE8F8834448CD
:103A600028380068C0B2801C4749B1FBF0F800203C
:103A70000BF077FA10F0007F02D00E242046ECE71E
:103A80003C480068022801D1760A7F0A394800685C
:103A900038B138480068012803D036480068022849
:103AA0002BD135480660202033494860402088608B
:103AB0000020C8604FF48060086108460BF0FBF9F5
:103AC0002020FEF751FC04460CB12046C5E72A48E9
:103AD0000760212028494860402088600020C86095
:103AE0004FF48060086108460BF0E5F92120FEF7ED
:103AF0003BFC04460CB12046AFE700201E4908609D
:103B000026204860402088600020C8604FF4806014
:103B1000086108460BF0CFF92620FEF725FC044685
:103B20000CB1204699E7002500E06D1C4545FCD30B
:103B30006846FFF7D4FE04464FF0FF3504E06846C0
:103B4000FFF7CDFE04466D1E45B13CB99DF800005F
:103B50000728F4D09DF800000628F0D020467CE726
:103B60005C2F0020A0050020A40500209C0500205B
:103B70002C2C014094050020482F0020980500209F
:103B800008E0FFFDA82E0020C0D4010010B54FF4BE
:103B900080700BF0C9FB50B10020FE4908704FF453
:103BA00080700BF015FC0120FB49086037E0022013
:103BB0000BF0BAFB30B102200BF00AFC0220F549F1
:103BC00008702CE008200BF0AFFB30B108200BF0A0
:103BD000FFFB0420EF49087021E020200BF0A4FB3C
:103BE00030B120200BF0F4FB0620EA49087016E003
:103BF00010200BF099FB30B110200BF0E9FB0520F1
:103C0000E44908700BE04FF400700BF08DFB30B10D
:103C10004FF400700BF0DCFB0720DE490870002138
:103C20004CF23A300BF0F6FADA48007810BD10B5D5
:103C3000DA48006810F0C05F08D00120D849086059
:103C40004FF0C251D548583006F05AFD10BD01461C
:103C5000002002E04910421CD0B20129FAD170477D
:103C60001CB501210D2009F0C3F90C220821CD4813
:103C700008F043FC0C220921CA4808F03EFC0C2243
:103C80000A21C84808F039FC0C220B21C54808F06D
:103C900034FC0C221146C34808F02FFC0C220221F0
:103CA000C14808F02AFC4FF47060009001208DF8A4
:103CB000050002208DF8040000208DF80600012088
:103CC0008DF807006946B74808F0DEF80420009038
:103CD0006946B54808F0D8F84FF4805000900020AD
:103CE0008DF807006946AF4808F0CEF84FF4006041
:103CF000009000208DF8040001208DF8070069462F
:103D0000AA4808F0C1F80121C80209F060FA0121AF
:103D1000880509F06DF91CBD10B5FFF737FF10BD20
:103D200010B5FFF784FF10BD10B504460023012233
:103D30009FA1A14810F04EFE10B1A0A012F0D2FE3B
:103D4000002010BD02460020704701460020704749
:103D50002DE9F05F83460C4615469846C1464FF064
:103D6000FF31954810F0D3FE4FF0030A40E015F004
:103D7000030F02D1994885421BD9002615E09848C7
:103D800040683044400200EB44214FF400729548F3
:103D9000FFF748FB074607B109E005EB46204FF463
:103DA0000072904912F041FB761C4E45E7D300BFEC
:103DB0001AE0B9F1010F0BD189484068400200EBCD
:103DC00044214FF400722846FFF72CFB07460BE016
:103DD00083484068400200EB44214B464FF4007298
:103DE0002846FFF783FB074607B904E0AAF1010A5A
:103DF000BAF1000FBBD100BF6F4810F026FF17B912
:103E00004046BDE8F09F0020FBE72DE9F0478246E1
:103E10000C4616469846C1464FF0FF31664810F0F2
:103E200076FE16F0030F02D16C4886421BD900279C
:103E300015E006EB47214FF400726A4812F0F5FADC
:103E4000674840683844400200EB44214FF4007258
:103E50006448FFF72FFC054605B102E07F1C4F4583
:103E6000E7D300BF1AE0B9F1010F0BD15C484068FD
:103E7000400200EB44214FF400723046FFF71AFC79
:103E800005460BE056484068400200EB44214B4693
:103E90004FF400723046FFF783FC0546464810F0A9
:103EA000D4FE15B94046BDE8F0870020FBE72DE9B8
:103EB000F04706460F4615465EB9002440F6A74374
:103EC000494A4AA14DA012F00DFE00BF002CFDD0C2
:103ED00000BF102F21D12C461CB94FF0FF30BDE898
:103EE000F0874FF4007060604C48006DA0604C4853
:103EF0000068022805D149480069401C8002206002
:103F00000AE04648D0F850C062460023D0E912814A
:103F1000404654F005F8206000BF0020DFE770B590
:103F20004FF4007012F0DCFF054605B970BD4FF488
:103F3000007200212846FFF775FA044654B90022A2
:103F40002946274816F04AFB40B100202449486022
:103F5000886003E00020224948608860284613F00A
:103F6000A6F901202F4908752F4848622F4888621A
:103F70002F48C8622F4808632F4848632F4888633A
:103F80002648C8630F222EA1264810F03BFA00BF36
:103F9000CCE70000A0050020A4050020006402403A
:103FA000A805002000080240000C0240000002406A
:103FB00073646C6F636B0000C42F0020696E6974BA
:103FC000207364206C6F636B2073656D6170686F24
:103FD0007265206661696C65640A00000000082053
:103FE000B42F0020E42F002050A807086465762035
:103FF000213D2052545F4E554C4C0000282573291A
:1040000020617373657274206661696C65642061F8
:10401000742025733A2564200A000000D82E002061
:1040200094050020742F0020293D0208453D020818
:104030004B3D0208513D02080B3E0208AF3E02080C
:1040400073643000012806D0022808D003280AD063
:10405000042810D10BE00121FA4A11700BE0022173
:10406000F84A117007E00321F64A117003E00421B9
:10407000F44A117000BF00BF704710B5F1480078D6
:10408000012806D0022809D003280CD0042814D116
:104090000EE08021EC4808F04BF90EE01021EB48CF
:1040A00008F046F909E02021E84808F041F904E069
:1040B0002021E74808F03CF900BF00BF10BD10B553
:1040C0008021E14808F003F91021E04808F0FFF8EA
:1040D0002021DE4808F0FBF82021DD4808F0F7F841
:1040E00010BD10B54FF40061DA4808F021F910BD99
:1040F0002DE9F04107460024802600251AE0012121
:10410000D54808F015F9374204D00221D24808F00A
:10411000DEF803E00221D04808F00AF976106400C6
:104120000121CD4808F0D3F80421CB4807F096FFD1
:1041300004436D1C082DE2DB2046BDE8F0812DE92B
:10414000F041FFF79AFF9F20FFF7D2FFA520FFF76E
:10415000CFFFC4B2A520FFF7CBFFC5B2A520FFF764
:10416000C7FFC6B2FFF7ABFF200440EA052040EAD4
:1041700006073846BDE8F08110B54FF40061B54838
:1041800008F0A5F810BD10B5FFF7F6FFFFF7D7FF51
:10419000B249086008460068B14988420AD1B1A115
:1041A000AE48001D53F0AEFF4FF08070AB49486140
:1041B00000130883FFF795FF10BD10B5FFF75DFFF3
:1041C0000620FFF795FFFFF77AFF10BD10B5FFF748
:1041D000F4FFFFF752FFC720FFF78AFFFFF76FFFDB
:1041E000FFF74BFF0520FFF783FF10BD10B5A5209B
:1041F000FFF77EFF00F00100012800D110BD002074
:10420000FCE710B5FFF75BFF10BD10B5FFF735FFFA
:104210000520FFF76DFF00BFA520FFF769FF00F045
:1042200001000128F8D0FFF74AFF10BD10B5044681
:10423000FFF7C3FFFFF721FF2020FFF759FFC4F36B
:104240000740FFF755FFC4F30720FFF751FFE0B227
:10425000FFF74EFFFFF733FFFFF7D7FF10BD2DE944
:10426000F04106460C4615464FF0000822E0FFF7E5
:10427000A4FFFFF702FF0220FFF73AFFC4F3074055
:10428000FFF736FFC4F30720FFF732FFE0B2FFF776
:104290002FFF002704E016F8010BFFF729FF7F1C12
:1042A000FF2FF8D9FFF70BFFFFF7AFFF04F580747E
:1042B00008F10108E91705EB1161B8EB212FD6D3FE
:1042C000FFF7DBFE0420FFF713FFFFF7F8FEFFF711
:1042D0009CFFBDE8F08130B5034600240EE013F8E2
:1042E00001CB6FEA0C0000F0FF0C11F8010B10EA93
:1042F0000C0F01D0012030BD601C84B29442EEDB73
:104300000020F8E72DE9F04104460E4615466019F5
:1043100052494969884202D90120BDE8F0810DB9AE
:104320000020FAE7FFF7A9FE0320FFF7E1FEC4F340
:104330000740FFF7DDFEC4F30720FFF7D9FEE0B228
:10434000FFF7D6FE0BE0A520FFF7D2FEC7B216F8A6
:10435000011BB94203D0FFF7B2FE0120DDE72800C0
:10436000A5F10105EFD1FFF7AAFE0020D5E770B552
:1043700006460C46154625B16019384949698842F8
:1043800000D970BDFFF779FE0320FFF7B1FEC4F33B
:104390000740FFF7ADFEC4F30720FFF7A9FEE0B228
:1043A000FFF7A6FE04E0A520FFF7A2FE06F8010B2A
:1043B0002800A5F10105F6D1FFF781FE00BFE0E777
:1043C0002DE9F05F07460D46164616B90120BDE8F7
:1043D000F09F22484069A84201D80020F7E71F4813
:1043E000008BB04201DA0020F1E73246294620482E
:1043F000FFF7BDFF324639461D4853F076FE08B937
:104400000120E4E74FF0000A324639461848FFF72A
:1044100062FF08B14FF0010A1048008B401E25EAE8
:1044200000080E48008BB04224D1002404E0385D1F
:104430000F490855601C84B20848008BA042F6DC86
:1044400029E00000AC050020000002400008024006
:10445000001C02400014024000040240E43100202D
:104460001840EF00573235513132384256000000C3
:10447000003200208248028B41468248FFF777FFD6
:104480007F48008B401E284084B27E49081932467E
:10449000394653F0D5FD4FF0000B00242AE0BAF165
:1044A000010F02D14046FFF7C1FE7548028B41461D
:1044B0007448FFF7D4FE324639462846FFF722FFFC
:1044C00010B94FF0010B17E0324639462846FFF786
:1044D00019FF10B94FF0010B0EE04FF0000903E097
:1044E00009F101001FFA80F942F210708145F7DBF3
:1044F000601C84B2032CD2DB00BF584667E72DE96D
:10450000F05F07460D4616464FF00008C146C2460A
:104510000024A3465A48008BB5FBF0F100FB115074
:104520001FFA80FA5648008BA0EB0A0084B2544868
:10453000008B96FBF0F01FFA80F85148008B96FB39
:10454000F0F100FB11601FFA80F94FF400614E4852
:1045500007F0BDFEBAF1000F2AD1B8F1000F08D163
:10456000324629463846FFF72BFF00287ED1BDE8AA
:10457000F09F0EE04248028B29463846FFF720FFA5
:1045800008B90020F3E73E48008B05443C48008B07
:1045900007445FEA0800A8F101011FFA81F8E9D198
:1045A0004A4629463846FFF70BFF002861D1DEE76F
:1045B000B8F1000F1FD1A14515DDA9EB04001FFACA
:1045C00080FB224629463846FFF7FAFE08B900204C
:1045D000CDE7254427445A4629463846FFF7F0FEE2
:1045E000002846D1C3E7324629463846FFF7E8FEA1
:1045F000E0BB0020BBE7301B86B22148008B96FB56
:10460000F0F01FFA80F81E48008B96FBF0F100FBDB
:1046100011601FFA80F9224629463846FFF7D0FE7E
:1046200008B90020A3E7254427440EE01448028B74
:1046300029463846FFF7C4FE08B9002097E710481E
:10464000008B05440E48008B07445FEA0800A8F180
:1046500001011FFA81F8E9D1B9F1000F09D04A46EA
:1046600029463846FFF7ACFE00B900E001E0002023
:104670007DE74FF40061044807F05AFE012076E719
:10468000E4310020003200200014024010B58AB04E
:10469000044620788DF8000000208DF801003220BB
:1046A000ADF8020003208DF804004FF4FA70ADF865
:1046B00006000020ADF80800ADF80A00ADF80C00C7
:1046C000ADF80E00ADF810001E20ADF8120000206D
:1046D000ADF81400ADF81600ADF818004FF4FA70FC
:1046E000ADF81A0001208DF81C0000208DF81D0087
:1046F0008DF81E00089028226946204653F0A0FC41
:104700000AB010BD10B58AB0044620788DF80000BC
:1047100002208DF801003220ADF8020003208DF850
:1047200004004FF4FA70ADF806000020ADF8080060
:10473000ADF80A00ADF80C00ADF80E00ADF81000B1
:10474000ADF812001E20ADF814000020ADF81600E0
:10475000ADF81800ADF81A008DF81C008DF81D009A
:104760008DF81E00089028226946204653F068FC08
:104770000AB010BD10B588B0044620788DF804004A
:1047800006208DF805006420ADF80600ADF808009D
:104790000020ADF80A00ADF80C00ADF80E00ADF841
:1047A00010001E20ADF812000020ADF814004FF4E8
:1047B000FA70ADF8160000208DF818008DF8190079
:1047C0008DF81A001C2201A9204653F039FC08B0CC
:1047D00010BD10B58CB0044620788DF8000007207D
:1047E0008DF801004FF49670ADF8020003208DF8AB
:1047F00004004FF4FA70ADF806000020ADF8080090
:10480000ADF80A001E20ADF80C000020ADF80E0037
:104810004FF4FA70ADF8100000208DF812008DF8FA
:1048200013008DF814008DF815008DF816008DF822
:104830001700ADF8180006208DF81A0040F6980011
:10484000ADF81C0000208DF81E0001208DF81F001F
:1048500000208DF820008DF821008DF822008DF8C1
:1048600023008DF824008DF825008DF826008DF8A2
:1048700027008DF828008DF829003022694620464F
:1048800053F0DEFB0CB010BD10B58AB004462078A2
:104890008DF8040004208DF805003220ADF80600E4
:1048A00000208DF808000390642004900020ADF8EB
:1048B0001400ADF81600ADF818001E20ADF81A006F
:1048C0000020ADF81C008DF81E008DF81F008DF83B
:1048D00020008DF82100242201A9204653F0B0FBCE
:1048E0000AB010BD10B58AB0044620788DF80400D7
:1048F00009208DF805004FF44870ADF806004FF41C
:10490000FA70ADF808000020ADF80A0040F6B830A3
:10491000ADF80C000020ADF80E004FF47A70ADF841
:1049200010000020ADF812001E20ADF81600002087
:10493000ADF818004FF41670ADF81A0000208DF88D
:104940001C008DF81D008DF81E000890242201A97E
:10495000204653F075FB0AB010BD10B58EB004466A
:1049600020788DF8040001208DF805003220ADF884
:10497000060003208DF808004FF4FA70ADF80A0025
:104980000020ADF80C00ADF80E00ADF81000ADF849
:104990001200ADF814001E20ADF816000020ADF88E
:1049A0001800ADF81A00ADF81C004FF4FA70ADF81D
:1049B0001E0001208DF8200000208DF821008DF8C8
:1049C00022008DF823006420ADF82800ADF82A00FD
:1049D0000020ADF82C00ADF82E004FF4FA70ADF8C1
:1049E0003000342201A9204653F02AFB0EB010BD3E
:1049F00010B58EB0044620788DF8000003208DF8A5
:104A000001003220ADF8020003208DF804004FF4BD
:104A1000FA70ADF806000020ADF80800ADF80A0005
:104A2000ADF80C00ADF80E00ADF81000ADF81200B6
:104A30001E20ADF814000020ADF81600ADF81800E7
:104A4000ADF81A008DF81C008DF81D008DF81E00C1
:104A500008906420ADF82800ADF82A000020ADF8D9
:104A60002C00ADF82E004FF4FA70ADF8300038226B
:104A70006946204653F0E4FA0EB010BD10B58EB072
:104A8000002401208DF80000FE4890F88C0018B139
:104A90006846FFF7FBFD36E0FA4890F88D0018B144
:104AA0006846FFF72FFE2EE0F64890F88E0018B10A
:104AB0006846FFF75FFE26E0F24890F88F0018B1D5
:104AC0006846FFF786FE1EE0EE4890F8920018B1A7
:104AD0006846FFF7D9FE16E0EA4890F8930018B14F
:104AE0006846FFF7FFFE0EE0E64890F8900018B128
:104AF0006846FFF732FF06E0E24890F8910010B1F7
:104B00006846FFF775FFE04804685CB1DE4920683D
:104B10000860002020603821601A0A46694653F078
:104B20008FFA01E00EB010BDD848806830B1D74888
:104B300080680460D5488068606001E0D3484460C4
:104B4000D24884600078401CD049087000BFE9E773
:104B500070B52DED028B00240025002008EE100A10
:104B60004FF42061CA4853F084FA00BF0FE0C848F0
:104B700000EB841000F13805C549601C01EB801082
:104B8000383008EE100A85ED008A601C44B2272CEC
:104B9000EDDB0020BD49486088600870BC483830B3
:104BA000B9490860FFF76AFFBDEC028B70BD2DE9C3
:104BB000F0410646002400250027A046B3480078AF
:104BC000012805D1B14841683820081ABDE8F081B4
:104BD000AE48446808E03820201A0078B04202D17C
:104BE0004FF0010802E02468002CF4D100BFB8F1B6
:104BF000000F01D10020E9E7606818B1D4E9000195
:104C0000086006E0A14920684860084641683820ED
:104C10000F1A206818B1D4E90010486006E09B49DB
:104C2000606888600846816838200F1A17B93820F4
:104C300021680F1A95480078401E9449087025464F
:104C40002D6808E03820281A0078401EC1B23820AC
:104C5000281A01702D68002DF4D13821681A53F0FC
:104C600008FA894800682060874804603846ADE744
:104C700070B58EB006460024002584480078B04206
:104C800002DA601E0EB070BD7F480568701CC0B2AD
:104C90008DF800007B4890F88C0018B16846FFF74B
:104CA000F5FC36E0774890F88D0018B16846FFF7BC
:104CB00029FD2EE0734890F88E0018B16846FFF782
:104CC00059FD26E06F4890F88F0018B16846FFF74D
:104CD00080FD1EE06B4890F8920018B16846FFF71F
:104CE000D3FD16E0674890F8930018B16846FFF7C7
:104CF000F9FD0EE0634890F8900018B16846FFF7A0
:104D00002CFE06E05F4890F8910010B16846FFF76E
:104D10006FFE4DB15C49286808603821681A0A4660
:104D2000694653F08DF902E06FF00100AAE7574899
:104D3000446806E03820201A0078B04200D102E032
:104D40002468002CF6D100BF6C60206828602068C1
:104D500010B12068456001E04C48856025602C68F2
:104D600008E03820201A0078401CC1B23820201AF0
:104D700001702468002CF4D144480078401C434959
:104D8000087000207EE7F0B58FB006460F4600247D
:104D900000253E480078B04203DB3C480078B8422A
:104DA00003DA4FF0FF300FB0F0BD3848446806E03A
:104DB0003820201A0078B04200D102E02468002C8C
:104DC000F6D100BF3148456806E03820281A00783F
:104DD000B84200D102E02D68002DF6D100BF382086
:104DE000201A07703820281A06703820211A024627
:104DF00001A853F025F93822A91AA01A53F020F976
:104E00003821681A0A4601A953F01AF90020CAE7A6
:104E1000014600201D4A506806E03822821A1278A6
:104E20008A4200D102E000680028F6D100BF704736
:104E30000246492A01D801210FE0922A01D8022115
:104E40000BE0DB2A01D8032107E0B2F5927F01D8FD
:104E5000042102E04FF0FF3070470846FCE72DE9DF
:104E6000F0470446002500270026A946AA4604EB81
:104E70008400084901EBC00090F816804046FFF717
:104E8000D7FF09E0BD010020B0050020004C002044
:104E900000420020D41F0020814619F1010002D1F8
:104EA000401EBDE8F0870120FFF7CCF8CF484568E9
:104EB00000271CE0492F02D10027701C06B24FF4D6
:104EC000003202EB843202EB0632C7EBC70302EB7F
:104ED000C3013822A81AFFF712FB8246BAF1000F6D
:104EE00002D14FF0FF30DCE72D68781C07B2002DAF
:104EF000E0D10020D5E72DE9F0438FB0064600252C
:104F000000240027A14606EB8600B94901EBC0004A
:104F100090F81680B8F1280F03DD601E0FB0BDE8D1
:104F2000F0831FFA88F0FFF783FF814619F1010033
:104F300001D1401EF2E7002405E0601CC0B2FFF77B
:104F400097FE601C04B2A8F10100A042F5DC01202C
:104F5000FFF778F8A548456800241BE0492C04D1E8
:104F600000244F4501DA781C07B24FF4003000EB03
:104F7000863000EB0730382212FB040101A8FFF74E
:104F8000F6F93821681A0A4601A953F059F82D6834
:104F9000601C04B20DB14445E0DB94484568002430
:104FA00013E03820281A0178601C814202D04FF0AB
:104FB000FF30B3E73820281A40780C2802DD4FF084
:104FC000FF30ABE72D68601C04B21DB18748007844
:104FD000A042E6DC0020A1E72DE9F04705460C469B
:104FE00016464FF00008C1460027BA46012C02DAE7
:104FF000781EBDE8F0872046FFF71AFF00F0FF0893
:10500000A8F1010A4920B4FBF0F100FB114007B2FE
:1050100007B949270120FFF715F84FF4003000EBDE
:1050200085304FF4805212FB0A02781EC0EBC0009C
:1050300002EBC00138223046FFF761FA8146B9F130
:10504000000F01D00020D4E74FF0FF30D1E72DE969
:10505000F04705460C4616464FF000080027B946B3
:10506000012C02DA781EBDE8F0872046FFF7E0FE4B
:1050700000F0FF08A8F101094920B4FBF0F100FBA2
:10508000114007B207B949270120FEF7DBFF4FF4B3
:10509000003000EB85304FF4805212FB0902781E7D
:1050A000C0EBC00002EBC00138223046FFF75FF9C9
:1050B0000020D8E72DE9F041002633250120FEF736
:1050C000C1FF002410E0220302F58031662214FBA8
:1050D00002F202EB8202464B03EBC2004FF47F6206
:1050E000FFF70DFA601C44B2B442ECDB85B105EB6E
:1050F0008503DB041A0C230303F58031662314FBBC
:1051000003F303EB83033A4F07EBC300FFF7F7F911
:105110000020BDE8F08170B504460120FEF792FF43
:105120006620B4FBF0F04FF4803101EB00306621D3
:10513000B4FBF1F201FB1241282202FB010504EB52
:1051400084012B4A02EBC10028222946FFF7D7F938
:10515000002070BD2DE9F04100263325002410E029
:10516000220302F58031662214FB02F202EB820276
:105170001F4B03EBC2004FF47F62FFF7F8F8601C8F
:1051800044B2B442ECDB7DB105EB8503DA002303C6
:1051900003F58031662314FB03F303EB8303144F01
:1051A00007EBC300FFF7E3F80020BDE8F08170B51E
:1051B00004460120FEF746FF6620B4FBF0F04FF4F2
:1051C000803101EB00306621B4FBF1F201FB1241AA
:1051D000282202FB010504EB8401054A02EBC10011
:1051E00028222946FFF7C3F8002070BD004C00209C
:1051F000D41F002010B50120FE4908700822FEA12E
:10520000FC48401C11F0C1F90020FA494875012002
:105210008875FBA00FF0D0F804462CB1F54A173280
:10522000102120460FF036FA0020F24988770884D2
:1052300002204884888410BD10B50120FEF702FFCB
:1052400050224FF47041EF48FFF759F910BD4FF06D
:10525000A530EC4908600020087108720021E94877
:10526000C1600174417441610A20E6490876002159
:10527000E44841768176C176017741778177C177BD
:1052800080F8201080F821100020DE4981F82200EB
:105290000021DC4880F8231080F8241080F82510C5
:1052A000012180F82610002180F8271080F82810AE
:1052B0000020D449C8620021D24801634163816360
:1052C000C163016441648164C164704710B5FFF734
:1052D000BEFFFFF7B1FF10BD10B50120FEF7B2FE13
:1052E00050224FF47041C748FFF741F810BD10B588
:1052F000FFF7F2FFC3480068B0F1A53F04D0FFF705
:10530000E5FFFFF799FF07E0BE48007C20B90020C9
:10531000BC490871FFF790FF0020BA49487110BDE1
:1053200010B5FFF7E4FF0120FEF78CFE14220021E8
:10533000B548FFF71CF8B4480068B0F1A53F1BD092
:10534000FFF758FFFFF704FCFFF7B4FE0020FFF75C
:1053500086FD4FF0A530AC4908604FF08070486082
:10536000002088604FF48050C8600020086114223B
:105370000021A548FFF7C3F8FFF7EAFBFFF7EAFEB5
:10538000A1490969C8B2FFF7B6FD002211469FA0E6
:1053900015F0B8FB04461C229F49204615F003FC7B
:1053A000204615F0DEFB9C488069B0F1A53F20D077
:1053B00000209949086048604FF4FA5088607420D2
:1053C000C8604FF480500861002048614FF0A5305C
:1053D0008861002240F201118CA015F093FB044675
:1053E0001C228D49204615F006FC204615F0B9FB1D
:1053F00000BF10BD10B500208749086048604FF419
:10540000FA5088607420C8604FF480500861002012
:1054100048614FF0A5308861002240F201117BA065
:1054200015F070FB04461C227B49204615F0E3FB77
:10543000204615F096FB79A015F05CFC002010BD0D
:1054400070B5044674480068A04216D9002211467F
:1054500072A015F057FB0546742004FB00F10022F2
:10546000284615F0F0FB74227049284615F09BFB86
:10547000284615F076FB6D4870BD0020FCE770B53E
:1054800004466548406964498968884238D20022E8
:1054900040F2011161A015F035FB05465E484069F8
:1054A000742200FB02F10022284615F0CCFB742286
:1054B0002146284615F09FFB284615F052FB56481A
:1054C0000068401C5449086008464069401C486117
:1054D00094F82F0018B908464068401C4860002224
:1054E00040F2011149A015F00DFB05461C224A4966
:1054F000284615F080FB284615F033FB002070BDD0
:105500002046FCE72DE9F04F2DED028B9FB00546BC
:105510000F4614469846DDE92A699DED2C8ADDF890
:10552000B4A03948006900EB8000324A02EBC000A9
:10553000411C684652F0E6FD082D79D2DFE805F0FF
:10554000048B1C8B798B31446088ADF81400ADF866
:105550001660E088ADF818002089ADF81A00208B9D
:10556000ADF81C00608BADF81E00608AADF820001D
:105570002079ADF822006FE06088ADF81400ADF836
:105580001660E088ADF818002089ADF81A00608B2D
:10559000ADF81C00A08AADF820002079ADF82200FB
:1055A0005AE06088ADF81600A088ADF81800E088D1
:1055B000ADF81A00608AADF81E00E089ADF8200051
:1055C0000020ADF8220047E06088ADF81400A08B01
:1055D000ADF81600E088ADF818002089ADF81A0083
:1055E000208AADF81E00A089ADF820002079ADF822
:1055F000220031E0D41F002064656661756C740080
:1056000072746300841F0020804C00202F2F696E6D
:10561000666F2E62696E0000944C00202F2F726519
:1056200073756C742E62696E000000000C4C0020D3
:1056300011E06088ADF81400A06880B2ADF81800E1
:10564000E06880B2ADF81A00E08AADF82000207959
:10565000ADF8220000E000BF00BFC6480078401E41
:10566000C0B28DF82C00C448006900EB8000C3492B
:1056700001EBC000807D8DF82D008DF82E508DF847
:105680002F70AFF284000EF097FE83461DAA102102
:1056900058460EF0FFFF9DF874008DF830009DF81D
:1056A00075108DF831109DF876108DF832109DF838
:1056B00078108DF834109DF879108DF835109DF81C
:1056C0007A108DF83610ADF83880ADF83A60ADF844
:1056D0003C908DED108AADF844A0A94800780128CF
:1056E00006D12822A7490DF14A0052F0A9FC04E096
:1056F00028210DF14A0052F0BCFC6846FFF7BFFEBE
:105700001FB0BDEC028BBDE8F08F2DE9F04F2DED01
:10571000028B9FB005460E4614461F46DDE92A89D6
:105720009DED2C8ADDF8B4A09348006900EB800061
:10573000924A02EBC000411C684652F0E3FC012D86
:1057400002D0032D26D112E0A08CADF81600E08C1B
:10575000ADF81800208DADF81A00A08DADF81E0030
:10576000608AADF820000020ADF8220013E0208D03
:10577000ADF81600608DADF81800A08DADF81A00D8
:10578000208EADF81E00A08AADF820000020ADF8F4
:10579000220000E000BF00BF76480078401EC0B283
:1057A0008DF82C007448006900EB8000734901EB10
:1057B000C000807D8DF82D008DF82E508DF82F6063
:1057C000AFF2C4100EF0F8FD83461DAA1021584612
:1057D0000EF060FF9DF874008DF830009DF8751094
:1057E0008DF831109DF876108DF832109DF87810F4
:1057F0008DF834109DF879108DF835109DF87A10D9
:105800008DF83610ADF83870ADF83A80ADF83C90B0
:105810008DED108AADF844A059480078012806D1D2
:10582000282258490DF14A0052F00AFC04E02821D0
:105830000DF14A0052F01DFC6846FFF720FE1FB034
:10584000BDEC028BBDE8F08F2DE9F04FA1B005460D
:105850000E4614461F46DDE92CABDDE92A89464891
:10586000006900EB8000454A02EBC000411C01A822
:1058700052F048FC6088ADF818000020ADF81A001E
:10588000A088ADF81C00E088ADF81E002089ADF8B6
:1058900028006089ADF82A00A089ADF82C00E089C5
:1058A000ADF82E000020ADF82000E08AADF822000F
:1058B000608AADF824000020ADF826002D4800785D
:1058C000401EC0B28DF830002B48006900EB80000C
:1058D0002A4901EBC000807D8DF831008DF83250EF
:1058E0008DF83360AFF2E8200EF066FD20901EAA1E
:1058F000102120980EF0CEFE9DF878008DF834002F
:105900009DF879108DF835109DF87A108DF83610C5
:105910009DF87C108DF838109DF87D108DF83910A9
:105920009DF87E108DF83A10ADF83C70ADF83E80D1
:105930000020ADF840001190ADF84A901FFA8AF0AF
:10594000ADF84C00ADF848B00D480078012806D1FC
:1059500028220C490DF14E0052F072FB04E0282180
:105960000DF14E0052F085FB01A8FFF788FD21B034
:10597000BDE8F08F0E000020804C0020D41F0020D6
:105980000000002050570020024600207047844647
:10599000002070472DE9FC4105460E4617463C465F
:1059A00065B94FF000081D238E4A8FA192A011F017
:1059B00099F800BFB8F1000FFCD000BF102E02D044
:1059C000112E3CD11DE06946002008F0B6F801A96F
:1059D000002008F0B1F99DF8070020709DF805003F
:1059E00060709DF80600A0709DF80400E0709DF8BE
:1059F000000020719DF8010060719DF80200A07107
:105A00001DE020788DF8070060788DF80500A078FB
:105A10008DF80600E0788DF8040020798DF80000FC
:105A200060798DF80100A0798DF8020001A90020AD
:105A300008F0BAF86946002007F088FF00BF00BFF1
:105A40000020BDE8FC810EB54FF4C06002F018FBE9
:105A50004FF4800005F075FA4FF4800000900020AC
:105A60008DF8040008208DF8050001208DF806004F
:105A7000684605F021F903208DF8080001208DF813
:105A8000090000208DF80A0001208DF80B0002A803
:105A900002F011FB0121880309F08FF8012008F0C2
:105AA00043FC042008F0F9FB002008F021FC0EBDA7
:105AB00000B585B00121080707F060FB012006F062
:105AC000E8FD012006F0ABFF00BF412006F02DFFEE
:105AD0000028FAD04FF4807007F0D9F9012007F0C0
