:020000040802F0
:1000000030980020A57F0208BD120208718F0308F6
:10001000BF120208C3120208C71202080000000043
:10002000000000000000000000000000CB120208E9
:10003000CD12020800000000BB8E0308ED1102087B
:10004000BF7F0208BF7F0208BF7F0208C5140208F5
:10005000BF7F0208BF7F0208BF7F0208BF7F020880
:10006000BF7F020809130208BF7F0208BF7F020892
:10007000BF7F0208BF7F0208BF7F0208BF7F020860
:10008000BF7F0208BF7F0208BF7F0208BF7F020850
:10009000BF7F0208BF7F0208BF7F0208C5130208A6
:1000A000BF7F0208BF7F0208BF7F0208BF7F020830
:1000B00083610608BF7F0208BF7F0208BF7F020876
:1000C000BF7F0208BF7F0208BF7F0208BF7F020810
:1000D000BF7F0208836E02087369070807130208CE
:1000E0002D130208BF7F0208BF7F0208BF7F0208EE
:1000F000BF7F0208BF7F0208BF7F0208BF7F0208E0
:10010000BF7F0208DD3D0208BF7F0208BF7F0208F3
:10011000BF7F0208BF7F0208BF7F0208BF7F0208BF
:10012000DB610608BF7F0208BF7F0208E53D0208C9
:10013000BF7F0208BF7F0208BF7F0208BF7F02089F
:10014000BF7F0208BF7F0208BF7F0208BF7F02088F
:10015000BF7F0208BF7F0208BF7F0208BF7F02087F
:10016000BF7F0208BF7F0208BF7F0208BF7F02086F
:10017000BF7F0208BF7F0208BF7F0208BF7F02085F
:10018000BF7F0208BF7F0208DFF80CD059F0C4FB24
:1001900000480047DF0902083098002010B50446E7
:1001A00001F064FE1EF079FF05F047FD01200CF020
:1001B0006EFB00BF08200CF0E6FB0028FAD000F030
:1001C00041FC10BD322018F051FA3BE0FE480078A7
:1001D000002834D1022007F0A5FEFC480078A0B921
:1001E00006F082FF0446152C0BD107F070F8044688
:1001F0003CB9142001F0BBFB0120F4490870F4491C
:1002000008700A2018F032FA1CE0F248007820B991
:1002100007F026FA012018F029FA06F0F4FE044649
:10022000162C0FD10020E94908700A2018F01EFA98
:100230000A2001F09CFB0120E549087002E06420DF
:1002400018F014FAC2E72DE9F04186B00546E249FC
:1002500003C9CDE90401E04A083207CA01AB07C36C
:1002600000272C4611E02078802808DA9DF80E003F
:1002700000EBD07107EB61018FB2641C05E09DF8C3
:100280000E00384487B2641C641C20780028EAD130
:10029000BE20ADF810008C20ADF81200C820ADF8DB
:1002A00014004FF49670ADF81600CC49897F09B15F
:1002B000CBA100E0CFA1084604A944F087FF064681
:1002C0000196BDF81610A1EB070808EBD871C1F331
:1002D0004F002B4601AA502105F028FF304645F07B
:1002E00002F806B0BDE8F08108B504E001226946D5
:1002F000C34815F0F8FCF9E72DE9F047A2B08246B3
:100300004FF48776B44A1432D2E900109268CDE9EE
:100310001F021E91B04A203207CA1BAB07C31EA89A
:100320001B904FF448704FF4F07100231A46CDE94A
:10033000001019461EA81EF0BDFA4FF6FF724FF4CA
:100340007841002006F01CFB03F055FE19F0F0FB8D
:100350001BF040FD00200346AAA2ABA10090ABA079
:100360001AF07CFB18B9AAA016F067FD02E0AFA056
:1003700016F063FD05F008F84FF000090022114661
:10038000B1A01AF08FFD8146BC22B34948461AF04D
:10039000DAFD48461AF0B5FDB04B0A2211461EA8F8
:1003A00006F043FB8D48807FC0EB0010AA4B03EBA7
:1003B00080028A48807F08B1A9A000E0ABA0014676
:1003C00002A816F09BFD02AB1BAA2821642005F0B1
:1003D000ADFE8248807F08B1A6A000E0A9A0034638
:1003E0001BAA4621642005F0A1FE7C48807F08B14D
:1003F000A8A000E0AFA003461BAA46214FF4C87096
:1004000005F094FE7548807F08B1B2A000E0BBA063
:1004100003461BAA4FF4E1714FF4FA7005F086FE13
:100420001E980090BDF87E30BDF87C20BDF882108B
:10043000BDF8800001F0FDFE002046F0EBFC054613
:1004400000249EE0C4EB0410642202EB400081B261
:100450002B461BAA0A2005F069FE6048807FA0B9E0
:10046000284616F0F0F90A2101EBC0000A301FFA05
:1004700080F9C4EB0410642202EB400081B2A54B6A
:100480001BAA484605F052FE13E0284616F0DBF999
:100490000A2101EBC0000A301FFA80F9C4EB0410F6
:1004A000642202EB400081B29BA31BAA484605F0E0
:1004B0003DFEE0B246F01BFD0546C5B9C4EB041095
:1004C000642202EB400081B2A2A31BAA4FF42F705A
:1004D00005F02CFE1E980090BDF87E30BDF87C2003
:1004E000BDF88210BDF8800001F0A3FE42E0C4EB2D
:1004F0000410642202EB400081B298A31BAA4FF4BF
:100500002F7005F013FE1E980090BDF87E30BDF8E8
:100510007C20BDF88210BDF8800001F08AFE2846DC
:10052000FFF791FE24E0E0B246F0E1FC05001FD1A8
:10053000C4EB0410642202EB400081B285A31BAA25
:100540004FF42F7005F0F2FD86A31BAA4FF4E17162
:10055000142005F0EBFD1E980090BDF87E30BDF82C
:100560007C20BDF88210BDF8800001F062FE00E042
:10057000D9E700BF611C89B20C46C8B246F04AFCFC
:100580000546002D7FF45EAF4FF448704FF4F071D4
:1005900000231A46CDE9001019461EA81EF08AF95C
:1005A0001E980090BDF87E30BDF87C20BDF882100A
:1005B000BDF8800001F03DFE002074490870274816
:1005C0004FF6FF73E4E00000C41B00200000002091
:1005D0000100002014000020A8B807080020002017
:1005E00053656C662D436865636B696E6720496E61
:1005F000666F2000D7D4BCECD0C5CFA200000000AD
:10060000D01F0020656C6D002F0000007364300067
:1006100046696C652053797374656D20696E6974E1
:1006200069616C697A6564210A00000046696C653D
:100630002053797374656D20696E697420666169F1
:100640006C6564210A0000002F2F436F6E66696796
:100650002E62696E00000000BC010020D8AC0708C3
:100660004D6F64656C3A257300000000D0CDBAC5AB
:100670003A2573005665723A2056312E30302E30AE
:1006800038000000B0E6B1BE3A56312E30302E3080
:10069000380000005765623A20687474703A2F2F52
:1006A0007777772E6373616C6C77696E2E636F6DED
:1006B00000000000CDF8D6B73A687474703A2F2F56
:1006C0007777772E6373616C6C77696E2E636F6DCD
:1006D000000000004E414E4A494E47204348414EDB
:1006E000475348454E4720494E535452554D454E69
:1006F0005420434F2E2C4C5444000000C4CFBEA9BC
:10070000B3A4CAA2D2C7C6F7D3D0CFDEB9ABCBBE93
:1007100000000000EC8B0C08A1A4A1A4A1A4A1A43A
:10072000A1A4A1A4A1A4A1A4A1A4A1A4A1A4A1A4A1
:10073000A1A4A1A4A1A4A1A4A1A4A1A4A1A4A1A491
:10074000A1A4A1A4A1A4A1A4A1A4A1A4A1A4A1A481
:10075000A1A400005B4F4B2E5D0000005B4E472EB6
:100760005D000000202020202020202020202020AC
:100770002020202020202020202020202020202079
:1007800020202020202020202020200002000020E7
:100790004FF47842822100904FF4B47001F002FDD2
:1007A00000240BE04FF6FF715E4A04F5967022F8C4
:1007B0001010104620F81410601C84B2B4F5967F17
:1007C000F0DB4FF487740DE01F21564A04F114004A
:1007D00022F810100A3822F81010104620F81410D1
:1007E000601C84B2B4F58B7FEEDB1E2001F0BFF8F5
:1007F0004FF4967310224FF48C71FA2001F096FB9F
:1008000002204FF0C041488000200123464A47A102
:100810000090494815F085F800200123474A48A177
:1008200000904A4815F07DF8142003214FF400632E
:100830000022CDE90010464946A017F0C6FD8146CA
:10084000B9F1000F02D0484617F058FD32E00A22F5
:1008500021A9394815F047FA78B9012041490870B3
:100860004FF0C84043154FF4F07200210090084645
:1008700001F0DFFC22B0BDE8F087002410E0294839
:1008800000EB4608002706E038F8020B4FF0C041A5
:100890000880781C87B2B7F5967FF5DB601C84B2C0
:1008A000102CECDB1E2E03DBA6F11E0086B201E04D
:1008B0004FF48776CBE71FB5142008210B020022E6
:1008C000CDE90010AFF22B7127A017F07EFD044692
:1008D00014B1204617F012FD05200F214FF480724D
:1008E000234BCDE90032CDE902100023214A22A199
:1008F000234817F099FC224817F000FD1420052129
:100900004FF400630022CDE900101E491EA017F02D
:100910005CFD044614B1204617F0F0FC002004B042
:1009200010BD0000E02800200300002073746172F5
:100930007475705F6D620000A01F0020070000202A
:100940006D6F646275735F6D62000000D01F0020E0
:10095000E90202086D6F646275735F736572766594
:100960000000000015000020696E6974000000009E
:10097000201E0020C50102086C65643100000000E3
:10098000201F0020F90202087374617274757000F0
:1009900004460D4615A016F050FA21461DA016F08B
:1009A0004CFA294620A016F048FA00BFFEE710B521
:1009B00000F041FC13F0DEFD17F05FF818F069F964
:1009C0001E491F4816F0D1FB17F011FAFFF773FF0D
:1009D00018F06BF914F081F817F025FA10BD10B576
:1009E00018F054FAFFF7E3FF002010BD0A0D20575E
:1009F000726F6E6720706172616D657465722076CA
:100A0000616C7565206465746563746564206F6EE0
:100A10000D0A00002020202020202066696C65201F
:100A20002025730D0A000000202020202020206CAB
:100A3000696E65202025640D0A0000000000022078
:100A4000309800203EB504F0C3FC012007F06AFA9C
:100A500006F0CEFA022007F065FA06F0C9FAFE4861
:100A600090F8250020B1012805D0022809D105E021
:100A70004FF4965408E04FF4165405E04FF49644B2
:100A800002E04FF4165400BF00BF204606F03BFAC8
:100A900001A902A857F008FDF04831230222009076
:100AA0009DF80410029856F0F0FAEB4991F82400F2
:100AB00054F032F9EA4813F0ABFF4DF0EAFD3EBDC9
:100AC0001CB5012140F2FF100CF052FB01218803FC
:100AD0000CF03DFC0C220021E2480BF0C6FD0C227C
:100AE0000121E0480BF0C1FD0C220221DD480BF092
:100AF000BCFD0C220321DB480BF0B7FD0C220421C6
:100B0000D8480BF0B2FD0C220521D6480BF0ADFD04
:100B10000C221146D3480BF0A8FD0C220D21D14820
:100B20000BF0A3FD0C220E21CE480BF09EFD0C22F3
:100B30000F21CC480BF099FD4FF23F0000900220AE
:100B40008DF8040001208DF8050000208DF80600C6
:100B500001208DF807006946C2480BF047FA0C22C5
:100B60000021C1480BF081FD0C220121BE480BF091
:100B70007CFD0C220221BC480BF077FD0C220321E6
:100B8000B9480BF072FD0C220421B7480BF06DFD43
:100B90000C220521B4480BF068FD3F200090694607
:100BA000B1480BF023FA0C220B21B0480BF05DFD8D
:100BB0000C221146AD480BF058FD0C220D21AB481C
:100BC0000BF053FD4FF4605000906946A7480BF0BE
:100BD0000DFA0C220321A6480BF047FD0C2204213C
:100BE000A3480BF042FD182000906946A0480BF086
:100BF000FDF90C220E219D480BF037FD0C220F2130
:100C00009A480BF032FD0C22002198480BF02DFD84
:100C10000C22012195480BF028FD4CF203000090B6
:100C2000694692480BF0E2F90C22072190480BF03C
:100C30001CFD0C2208218E480BF017FD0C22092107
:100C40008B480BF012FD0C220A2189480BF00DFD98
:100C50000C220B2186480BF008FD0C22114684481B
:100C60000BF003FD0C220D2181480BF0FEFC0C2241
:100C70000E217F480BF0F9FC0C220F217C480BF071
:100C8000F4FC4FF680700090694679480BF0AEF99D
:100C90000C22082175480BF0E8FC0C22092173484E
:100CA0000BF0E3FC0C220A2170480BF0DEFC4FF441
:100CB000E060009069466D480BF098F90C2207211E
:100CC0006A480BF0D2FC80200090694667480BF020
:100CD0008DF90C22092164480BF0C7FC4FF4007019
:100CE0000090694660480BF081F90C2204215F48AE
:100CF0000BF0BBFC0C2205215C480BF0B6FC30204D
:100D00000090694659480BF071F94020009000208E
:100D10008DF8040001208DF8060000208DF80700F2
:100D2000694652480BF062F94020009000208DF88F
:100D300004008DF8070069464E480BF057F9002073
:100D40008DF8040001208DF806008DF807008DF85D
:100D5000050000030090694646480BF047F94FF440
:100D600060400090694644480BF040F901208DF83E
:100D7000040000208DF806008DF807004FF4E060B5
:100D8000009069463B480BF031F904200090694619
:100D90003A480BF02BF900208DF8040001208DF863
:100DA00006008DF8070002208DF8050080030090F2
:100DB000694630480BF01AF90820009069462F4820
:100DC0000BF014F90F2100200FF0ECF9032108209B
:100DD0000FF0E8F94FF400400090694622480BF00C
:100DE00005F980200090694624480BF0FFF80721A0
:100DF00008200FF0D7F94020009069461F480BF0FB
:100E0000F5F8062108200FF0CDF94FF4806000902E
:100E100069461A480BF0EAF80A2108200FF0C2F9D7
:100E20004FF480700090694614480BF0DFF80821F9
:100E300008460FF0B7F94FF4C070009069460A48B1
:100E40000BF0D4F8082106200FF0ACF901208DF842
:100E50000400002014E00000002000209F6A070822
:100E6000436A07080014024000180240000C0240C8
:100E70000010024000000240001C0240002002401E
:100E80008DF806008DF8070001208DF805004FF45D
:100E9000E05000906946B1480BF0A8F8012000909E
:100EA0006946AF480BF0A2F84FF4806000906946A5
:100EB000AC480BF09BF8102000906946AA480BF054
:100EC00095F80C220821A9480BF0CFFB0C22092130
:100ED000A6480BF0CAFB0C220A21A4480BF0C5FB64
:100EE0000C220B21A1480BF0C0FB0C2211469F489D
:100EF0000BF0BBFB0C2202219D480BF0B6FB4FF41C
:100F00007060009001208DF8050002208DF804002B
:100F100000208DF8060001208DF8070069469348EF
:100F20000BF064F804200090694691480BF05EF8DD
:100F30004FF48050009001208DF8070069468B48DF
:100F40000BF054F84FF40060009000208DF804007E
:100F500001208DF80700694681480BF047F8012011
:100F60008DF8040000208DF806008DF807000120A0
:100F70008DF8050080200090694679480BF036F81E
:100F800030200090694679480BF030F8202000901E
:100F9000694675480BF02AF80320009069467548A9
:100FA0000BF024F84FF40060009069466D480BF098
:100FB0001DF800208DF804000420009069466D485B
:100FC0000BF014F801208DF8070000208DF80400C4
:100FD00040200090694665480BF008F88021604881
:100FE0000BF02DFA102161480BF029FA20215F48FF
:100FF0000BF025FA20215C480BF021FA1CBD00B54E
:10100000A1B0012108460CF005F900200B900C90CE
:101010000D900E900F9010901190042004900020DD
:101020000590082006900120079000200890099064
:101030000A90129013901490102015900020169092
:101040001790189019901A904FF480501B90002020
:101050001C901D901E9004A81F900BA8209012A811
:101060000AF08FF8012100200AF084FA03200B9087
:1010700000200C9002200D9001200E9000200F9077
:10108000109011900220129000201390149015904F
:1010900016901790189019901A904FF480501B904A
:1010A00000201C901D901E900BA81F90209012A84D
:1010B0000AF067F8012102200AF05CFA0121C80257
:1010C0000CF045F9012188050CF052F803208DF849
:1010D000050000208DF8060001208DF8070028206B
:1010E0008DF8040001A807F08CF809208DF80400A1
:1010F00001A807F086F801208DF8050017208DF86B
:10110000040001A807F07DF8082106200FF04AF836
:1011100048F2C850029000208DF80C000C208DF889
:101120000D0001208DF80E00082009F0CCFF4FF4CF
:10113000807009F0C8FF4FF4004009F0C4FF802020
:1011400009F0C1FF402009F0BEFF4FF4806009F0B4
:10115000BAFF02A809F072FE21B000BD00180240DB
:101160000000024000140240001C0240000802403F
:10117000000C024000040240704730B54FF0E02000
:10118000006920F001004FF0E02108614548006847
:101190004FF47A72B0FBF2F1481EB0F1807F00D3B9
:1011A0001BE0481E4FF0E022506150170F2200282C
:1011B00007DA13071D0E3C4B00F00F04241F1D55CA
:1011C00003E013071C0E394B1C5400BF00204FF0E6
:1011D000E02290610720106100BF4FF0E02000691D
:1011E00040F001004FF0E021086130BD10B515F06E
:1011F0003FFA2F480068401C2D4908600A21B0FBC7
:10120000F1F201FB120008B913F0C3F957F02FFBFC
:101210004DF0A7FC15F03BFA10BD014606E000209A
:1012200000E0401C44F61A129042FAD30A00A1F1E1
:101230000101F4D1704710B545F012FB45F07EFC7A
:1012400046F054FA4CF005FA4CF032FB4CF067FDD6
:101250004BF065F94BF06CFE4CF073F8FFF78CFF28
:10126000FFF78BFF00F061F912A015F05BFEFFF7AE
:1012700027FCFFF7C4FE05F0A0FD4FF4FA60FFF76E
:10128000CCFF00F016FF42F2107400BF01F0C3FE65
:101290002100A4F1010401D00028F7D102F0E4FFFD
:1012A00010BD00005806002018ED00E000E400E04A
:1012B000780200207561727431000000704700BF31
:1012C000FEE700BFFEE700BFFEE77047704701463C
:1012D00006E0002000E0401C44F61A129042FAD3C7
:1012E0000A00A1F10101F4D17047014605E0002098
:1012F00000E0401CB0F57A7FFBD30A00A1F10101A8
:10130000F5D170477047704710B57848007848B1FC
:101310007748007918B91D21764814F0DBFC0320CA
:1013200000F025FB082009F0CEFE10BD10B54FF4EB
:10133000004009F072FEE0B16C48007850B16C4892
:10134000007918B91C216B4814F0C4FC032000F08C
:101350000EFB0AE00220FFF7C8FF4FF40041664889
:101360000AF035FF08B94DF09CFB4FF4004009F03E
:10137000AAFE4FF4806009F050FE08B35F48006891
:1013800020F480605D490860081509F09CFE4FF468
:101390007A70FFF7AAFF4FF4806159480AF017FFEF
:1013A00030B15648006840F480605449086010BD70
:1013B0004DF077FB5148006840F480604F49086069
:1013C00000BFF4E710B54FF4807009F026FE78B343
:1013D0004A48006820F4807048490860881509F080
:1013E00072FE0120FFF773FF4FF4807142480AF04C
:1013F000EEFE40B94CF046FE4048006840F4807074
:101400003E49086010BD4FF480713D480AF0DFFE90
:1014100040B94CF0EFFE3948006840F4807037491D
:101420000860EFE73548006840F480703349086091
:10143000802009F0F2FDF8B13048006820F080000B
:101440002E490860802009F03EFE0520FFF74DFF81
:1014500080212B480AF0BBFE30B12848006840F0DC
:10146000800026490860CDE74DF01BFB234800684B
:1014700040F0800021490860402009F0CEFDF8B11D
:101480001E48006820F040001C490860402009F018
:101490001AFE0220FFF729FF402119480AF097FEA3
:1014A00030B11648006840F0400014490860A9E7D0
:1014B0004DF024FB1148006840F040000F490860DF
:1014C00000BF9FE710B54FF480400DF0E3FC60B122
:1014D0004FF0AC410B4814F0FDFB4FF480400DF091
:1014E0000EFD4FF4800009F0EEFD10BD1400002049
:1014F000002000207028002000180240003C01401D
:10150000002002401857002070470CB502208DF8CB
:10151000040000208DF8060001208DF8070000204F
:101520008DF805000CBD7047704710B5FFF7ECFF54
:10153000FFF7EBFFFFF7F7FFFFF7F6FF10BD000027
:1015400000BF0100A0F10100FBD1704770B54FF45E
:10155000004517F09BFC0646A911FC480AF0A0FFC5
:10156000002421E04FF48071F8480AF099FFF84810
:101570000088284028B14FF48061F4480AF05FFFEA
:1015800004E04FF48061F1480AF08AFF0020FFF781
:10159000D7FF4FF48071ED480AF051FF0020FFF7AC
:1015A000CFFF6D08601CC4B2102CDBDB4FF4007160
:1015B000E6480AF044FF304617F06CFC70BD2DE998
:1015C000F04104460D4627462E46022D1FD1200C21
:1015D000000490B1DF4800686040DE4908600846BA
:1015E000006800F4803020B10421DB480AF027FFB6
:1015F00003E00421D8480AF053FFA4B234B1D44820
:1016000000886040D2490880FFF7A0FF29E0200C45
:101610000004B8B11DB1CF480068204302E0CD48B6
:101620000068A043CB4908600846006800F4803099
:1016300020B10421C8480AF002FF03E00421C64893
:101640000AF02EFFA4B25CB11DB1C148008820434E
:1016500002E0BF480088A043BD490880FFF776FF3D
:1016600000BF00BFB7F5807F23D0B7F5007F11D052
:10167000B7F5803F2CD126B1012E06D0022E06D11F
:1016800004E0002046F049F802E001E000E000BF7D
:1016900000BF1EE016B1012E08D103E0002046F085
:1016A00049F804E0012046F045F800E000BF00BF23
:1016B0000FE016B1012E08D103E0002046F047F8F4
:1016C00004E0012046F043F800E000BF00BF00E066
:1016D00000BF00BFBDE8F08110B500244FF4805179
:1016E0009A480AF074FD08B1012000E0002004438C
:1016F0004FF4005199480AF06AFD08B1022000E059
:10170000002004434FF4804194480AF060FD08B182
:10171000042000E0002004434FF400418F480AF009
:1017200056FD08B1082000E000200443204610BD0B
:1017300070B580250026002415E08548008800F457
:101740007F4083490880E843C0B209880843804944
:101750000880FFF7FBFEFFF7BFFFA10088400643AC
:101760006D10601CC4B2082CE7DB16F1011F6DD0B0
:1017700034DC6FF08071A6EB01008E4262D014DC85
:10178000B0F1794F70D009DCB0F1414F76D0B0F1B3
:10179000614F65D0B0F1714F69D151E0B0F17D4F2B
:1017A00073D0B0F17F4F62D15CE06FF48011701A9A
:1017B0008E4249D009DC10F5E00F7BD010F5401FB8
:1017C00069D010F5801F77D152E006F58020401CCB
:1017D000002867D0B0F5003F6ED14BE016F1410F05
:1017E0005CD017DC6FF48061A6EB01008E424ED016
:1017F00009DC10F5705F43D010F5E05F3CD010F5C8
:10180000406F59D124E006F2012070B3B0F5807F1B
:1018100052D11FE016F1030F42D009DC16F1210F5F
:1018200037D016F1110F17D016F1050F44D13BE058
:1018300016F1020F12D06FF00040301A3CD135E0A3
:10184000012070BD0220FCE70320FAE70420F8E73E
:101850000520F6E70620F4E70720F2E70820F0E786
:101860000920EEE70A20ECE722E00CE006E023E0A6
:101870000B20E6E70C20E4E70D20E2E70E20E0E78E
:101880000F20DEE701E01020DBE71120D9E712206E
:10189000D7E71320D5E71420D3E70BE01520D0E7D6
:1018A0001620CEE71720CCE71820CAE71920C8E792
:1018B0001A20C6E71B20C4E70020C2E70020284901
:1018C00008754875274828490860012048714FF479
:1018D000C8700881487900EBD0714910224A117113
:1018E000002011468872202008734020C872802092
:1018F000487300208873C873704710B5FFF7DEFF88
:1019000010BD1749497D164A50541146497D491C5E
:10191000C9B25175142901DB002151757047104877
:10192000007D0F4A527D904201D1002070470C4843
:10193000007D0B4A115C1046007D401CC0B2107542
:10194000142801DB002010750846EFE70000024074
:101950007E0200208002002000200240001C024085
:10196000582800203117020848280020704710B579
:101970000446FE480078C0F38100012800D110BD64
:1019800001218802FFF71BFEF948047000BFF6E74B
:1019900070B5044620688047C5B2FF2D00D170BDE8
:1019A000002D46D020796179884202DA6079207171
:1019B0005EE0207961794900884203DA2079401C91
:1019C000207155E0A07A70B90120A072207B002818
:1019D00009DD217B41EA0500FFF793FFE54805603B
:1019E0000520FFF7C4FF2089002841DDE088218918
:1019F00088420CDAE088401C80B2E080218988426D
:101A000036D1617B41EA0500FFF77BFF30E0A07B28
:101A100000282DDDE07B401CC0B2E073A17B884232
:101A200026DB0020E073217B41EA0500FFF769FF18
:101A30001EE020796179884202DD6079207114E02E
:101A4000207918B12079401E20710EE0A07A01287B
:101A50000BD10020A072E07A002806DDE17AC54AA9
:101A600012781143C8B2FFF74CFF0020E080E0730A
:101A700000BF94E710B5BD480078C0F3810001288D
:101A800000D110BDBC48FFF783FF00BFF9E71FB5C9
:101A9000BA4AD2E900109268CDE902020191002011
:101AA0001023B74AB7A10090B84813F03AFF1CE1E1
:101AB000B748407900287CD14CF090FE0028FAD13C
:101AC000FFF7D8FFFFF72BFF0546002D71DD05F06E
:101AD0001F04282D11D1AE48007980F00100AC49D7
:101AE00008710846007940F0A241AA4814F0F2F8C3
:101AF000A748007C08B103F0F7FBA548007900284F
:101B0000D9D1022C6FDB072C6DDC05F020000028FA
:101B10006BD0A1480078002867D1A01E802141FA2F
:101B200000F09E490978084000285ED101209A49BA
:101B300008709B4A1368A21E40F2ED36724303EB15
:101B400002104FF0C8424BF680331A441A4402F593
:101B50001642944B1A44944BD118320114F001FEF2
:101B60008B49897F01EBC10202EB01118F4A02EB25
:101B700001118F4A127802EB820201EBC202A11E10
:101B800052F8210014F05FFE00EB40007821A1EB39
:101B90008000C0F34F067E48807F00EBC00202EB5E
:101BA0000010824A02EB0010814A127802EB820296
:101BB00000E080E000EBC202A01E52F8203000EBF3
:101BC000400202EB8010173081B201AA304604F0C7
:101BD000ADFA4FF040516F4814F07CF829466B483D
:101BE00014F078F86CE067E0FFE76B4800780128B4
:101BF00066D1A01E802141FA00F0684909780840AA
:101C000000285DD164490870654A1368A21E40F23D
:101C1000ED36724303EB02104FF0C8424BF68033AF
:101C20001A441A4402F516425E4B1A44614BD1180D
:101C3000320114F096FD5649897F01EBC10202EB97
:101C400001115A4A02EB0111594A127802EB820241
:101C500001EBC202A11E52F8210014F0F4FD00EBCA
:101C600040007821A1EB8000C0F34F064848807FF8
:101C700000EBC00202EB00104C4A02EB00104C4A91
:101C8000127802EB820200EBC202A01E52F8203052
:101C900000EB400202EB8010153081B201AA304601
:101CA00004F044FA4FF040513A4814F013F8294632
:101CB000364814F00FF803E02946344814F00AF8C7
:101CC0002B48007800280BDD29480078401EC0B260
:101CD0002749087020B900214FF48060FFF76FFC9E
:101CE000012016F0C3FCFFF731FCE1E610B5044615
:101CF0001E480078C0F38100012800D010BD44B90F
:101D000000214FF48060FFF75AFC0020184908704A
:101D1000F4E701218802FFF752FC1548047000BF68
:101D2000ECE7FEB50546154A0C32D2E90010926880
:101D3000CDE90102009119480570002446E04FF0FA
:101D4000C8424BF680331A441A4402F51642154B2A
:101D50001A4443F6D06303FB04204FF0C8424BF60D
:101D600080331A441A4402F5164225E0105C002024
:101D7000A8050020B005002048280020D4B8070896
:101D8000A02800206B65795F6D620000702800203C
:101D90000020002018570020840200207C02002030
:101DA000F0070020A0570800B0B70100880200200B
:101DB00014000020E0780100384B1A44384BD11849
:101DC00043F6D06214F0CDFC601CC4B2062CB6DB26
:101DD000002443E080202041284020B14AF21450E2
:101DE000ADF8040003E04FF6FF70ADF804002D4994
:101DF000897F01EBC10202EB01112B4A02EB0111B9
:101E00002A4A127802EB820201EBC20151F8240047
:101E100014F019FD00EB40007821A1EB8000C0F325
:101E20004F062048807F00EBC00202EB00101E4AE4
:101E300002EB00101D4A127802EB820200EBC20096
:101E400050F8243004EB440000EB841000F115013D
:101E50006A46304604F06AF9601CC4B2062CB9DB4D
:101E60004FF04051124813F035FFFEBD1CB5FFF78F
:101E700044FD0A2000904FF4007300220D490190A8
:101E80000DA016F0A2FA0D4908600846006818B1C6
:101E90000846006816F032FA1CBD0000A057080082
:101EA000E0780100002000208802002014000020BB
:101EB000185700208F1A02086B657900AC050020C6
:101EC000002001E0411CC8B20A28FBDB704700205B
:101ED00001E0411C88B241F288318842F9DB704749
:101EE0004FF0C041488070474FF0C04108807047B4
:101EF00070B505460C462846FFF7F2FF2046FFF76F
:101F0000F3FF70BD70B504460D46E1B24620FFF701
:101F1000EFFF21124720FFF7EBFFE9B24820FFF760
:101F2000E7FF29124920FFF7E3FF70BD2DE9F041DB
:101F300004460D4617469846E1B23020FFF7D8FF19
:101F400021123120FFF7D4FFE9B23220FFF7D0FF92
:101F500029123320FFF7CCFF08EB0400401E86B2A5
:101F6000F1B23420FFF7C4FF31123520FFF7C0FF74
:101F70007819401E86B2F1B23620FFF7B9FF311250
:101F80003720FFF7B5FF29462046FFF7BBFFBDE826
:101F9000F0814FF0C0414988C8B270472DE9F04147
:101FA00005460C4616461F46DDF81880E9B2582053
:101FB000FFF79EFF29125920FFF79AFFE1B25A203E
:101FC000FFF796FFB8F1000F04D121125B20FFF755
:101FD0008FFF05E0802040EA24215B20FFF788FF87
:101FE000F9B25C20FFF784FF39125D20FFF780FF14
:101FF000F1B25E20FFF77CFF31125F20FFF778FF20
:10200000BDE8F08110B5044621465120FFF770FF6E
:1020100010BD10B50446E10A6320FFF769FFC4F361
:1020200045116420FFF764FF04F01F016520FFF7EE
:102030005FFF10BD10B55020FFF752FF8020FFF763
:1020400053FF10BD00B500BFFFF7A3FF00F0400035
:102050004028F9D000BD38B5044600204FF448733D
:102060004FF4F07201460090FFF798FF0C20FFF745
:10207000C9FF2046FFF7CDFFFFF7DCFFFFF7E2FFC8
:1020800038BD10B5044624B900218A20FFF730FF7F
:102090000EE0FF2C04D140218A20FFF729FF07E042
:1020A0008C218A20FFF724FF21468B20FFF720FF99
:1020B00010BD10B5002402E0FFF709FF641CC82C16
:1020C000FAD38820FFF70CFFFFF7FAFE0C20FFF78A
:1020D0000BFFFFF7FCFE8920FFF702FFFFF7F0FE82
:1020E0000220FFF701FFFFF7F2FE0A211020FFF7A1
:1020F000FFFE81210420FFF7FBFEFFF7E8FE6321CE
:102100001420FFF7F5FE00211520FFF7F1FE032153
:102110001620FFF7EDFE03211720FFF7E9FE0B2144
:102120001820FFF7E5FEDF211920FFF7E1FE01216E
:102130001A20FFF7DDFE1F211B20FFF7D9FE00212B
:102140001C20FFF7D5FE16211D20FFF7D1FE002130
:102150001E20FFF7CDFE01211F20FFF7C9FE082139
:102160002020FFF7C5FE0121C720FFF7C1FE802117
:102170000120FFF7BDFE00214020FFF7B9FE00213E
:102180004120FFF7B5FE4FF448734FF4F072002181
:102190000846FFF7CBFE0020FFF75DFFFF20FFF7AB
:1021A00070FF10BD2DE9FF4F83B090469946109DFA
:1021B000B5F800B06F88281D0290F81DC11700EB1C
:1021C0005171C1F3C70101913B465A46DDE9030154
:1021D000FFF7ACFE0220FFF783FE002624E0DDE9D6
:1021E000012006FB020100241AE0E21704EB527200
:1021F000D210A4EBC2020AB911F801AB0AF08000B8
:1022000020B14FF0C040A0F8008003E04FF0C04084
:10221000A0F800904FF6FF7000EA4A0A601C84B2F2
:10222000BC42E2DB701C86B25E45D8DB07B0BDE87D
:10223000F08F2DE9F0470746884615461C46DDF825
:10224000209015F0AFFE23462A4641463846FFF758
:102250006DFE0220FFF744FE4E46002219E0394988
:10226000002005E036F8023B21F8023B431C98B2FF
:10227000A042F7DB3349002007E031F8023B4FF082
:10228000C04CACF80030431C98B2A042F5DB531CA4
:102290009AB2AA42E3DB15F093FEBDE8F0872DE980
:1022A000F05F05460C466088E9884843296801EBE1
:1022B0004000218800EB4108E888E188401A1FFAB5
:1022C00080FA15F06FFEB5F80AC0B4F802B0DC442D
:1022D0001FFA8CF1B5F808C0B4F800B0DC441FFA5E
:1022E0008CF0E388A288FFF721FE0220FFF7F8FDBB
:1022F0004FF000091EE0134F002605E038F8020BEE
:1023000027F8020B701C86B2E088B042F6DC0D4F55
:10231000002606E037F8020B4FF0C0410880701C21
:1023200086B2E088B042F5DC08EB4A0809F101000A
:102330001FFA80F9A0884845DDDC15F041FEBDE8B4
:10234000F09F0000E02800201CB500200CF062FE89
:1023500000200CF06DFE0CF0F3FD00214FF4006046
:102360000AF0F5FF00220821FE480AF07EF900225B
:102370000921FC480AF079F900220A21F9480AF0FB
:1023800074F900220B21F7480AF06FF900220C21A2
:10239000F4480AF06AF900220221F3480AF065F9CC
:1023A0004FF47060009000208DF804008DF8070055
:1023B0006946EC4809F01AFE042000906946EA4894
:1023C00009F014FE4FF4805000906946E54809F08A
:1023D0000DFE1CBD10B5FFF7B7FF10BD2DE9F04194
:1023E00006460027E148056801E0E048056805F079
:1023F00045000028F9D005F0040030B1032704207F
:102400000DF052F83846BDE8F08105F0010028B122
:10241000012701200DF048F83846F4E70CF06EFE75
:10242000B04202D010273846EDE740F2FF500DF0E1
:102430003BF800200CF067FE0446CD48204008B968
:102440003846E0E704F0004008B11C20DBE704F068
:10245000804008B10920D6E704F0005008B10A20F6
:10246000D1E704F0805008B10B20CCE704F0006005
:1024700008B10C20C7E704F0806008B10D20C2E766
:1024800004F0807008B10E20BDE704F4000008B12C
:102490000F20B8E704F4800008B11020B3E704F47B
:1024A000001008B11120AEE704F4801008B112202A
:1024B000A9E704F4002008B11320A4E704F4802065
:1024C00008B114209FE704F4003008B115209AE702
:1024D00004F4803008B1162095E704F4004008B1F8
:1024E000172090E704F4804008B118208BE704F42B
:1024F000005008B1192086E704F0080008B11A203E
:1025000081E738467FE72DE9FC4107460D46002666
:1025100000240020009001900820964908601020B7
:102520004860402088600020C8604FF480600861E7
:1025300008460CF092FD1020FFF750FF044614B13E
:102540002046BDE8FC818C48008800048949086069
:1025500037204860402088600020C8604FF48060C9
:10256000086108460CF079FD3720FFF737FF044675
:102570000CB12046E5E74FF0FF30804908600820A5
:102580004860302088600220C86000200861012077
:10259000486108460CF0CFFD0020764908603320E2
:1025A0004860402088600020C8604FF48060086167
:1025B00008460CF052FD3320FFF710FF04460CB123
:1025C0002046BEE709E04FF400100CF019FF20B1DF
:1025D0000CF036FE4DF82600761C6448006840F288
:1025E0002A6108400028EED008200CF009FF28B12D
:1025F00008200CF059FF04242046A2E702200CF02A
:10260000FFFE28B102200CF04FFF0224204698E77D
:1026100020200CF0F5FE28B120200CF045FF062408
:1026200020468EE74FF400700CF0EAFE30B14FF414
:1026300000700CF039FF0724204682E740F2FF507B
:102640000CF032FF00980006009901F47F4140EA47
:102650000120009901F47F0140EA1120009940EA2D
:102660001160686001980006019901F47F4140EA19
:102670000120019901F47F0140EA1120019940EA0B
:102680001160286020465CE77CB5054600240020E8
:10269000009001900CF037FD00F0007010B10E2496
:1026A00020467CBD3449098888B26946FFF72BFF74
:1026B00004460CB12046F4E7012D36D1019800F410
:1026C000802000282ED02C4800880004294908606A
:1026D00037204860402088600020C860A802086158
:1026E00008460CF0BAFC3720FFF778FE04460CB120
:1026F0002046D6E702201F49086006204860402097
:1027000088600020C8604FF48060086108460CF0C3
:10271000A4FC0620FFF762FE04460CB12046C0E789
:102720002046BEE725242046BBE7019800F4803010
:10273000B8B11148008800040E490860372048608D
:10274000402088600020C8604FF48060086108461F
:102750000CF083FC3720FFF741FE044684B120468D
:102760009FE725E000080240000C0240342C0140A5
:1027700008E0FFFDC02F0020B8050020D42F002066
:102780000020F94908600620486040208860002049
:10279000C8604FF48060086108460CF05EFC0620BB
:1027A000FFF71CFE04460CB120467AE7204678E786
:1027B0002524204675E770B504460025EB480068DF
:1027C000032802D12725284670BDE848006838B1A3
:1027D000E6480068012803D0E448006802282CD1AC
:1027E000B4F5805F02D127252846EDE7B4F5006FE8
:1027F00013D10120FFF748FF0546F5B90020DC4959
:1028000008750860486088604FF40060C860002068
:10281000086108460CF09FFB0FE00020FFF734FF33
:10282000054655B90020D24908750860486088609F
:10283000C860086108460CF08EFB2846C4E770B5F6
:1028400004460025C84804600720C7494860402066
:1028500088600020C8604FF48060086108460CF072
:10286000FCFB0720FFF7BAFD0546284670BDF0B512
:10287000014600200022BD4B1B7881F85630BD4B2D
:102880001B88A1F85430BC4B1B681A0E93090B70BF
:10289000C2F383034B7002F003038B70B64B1B68CB
:1028A000C3F30742CA70B44B1B88C3F307220A71F3
:1028B000B14B1A784A715B681A0E1301CB80AE4B8C
:1028C0005B68C3F30742CB8843EA1213CB8002F064
:1028D0000F030B72A84B9B88C3F30722D3094B72DB
:1028E000C2F380138B72C2F34013CB72C2F3001396
:1028F0000B7300234B739D4B1B681BB19B4B1B68D9
:10290000012B4FD193071B0D0B619B4B1A790B6960
:1029100043EA82030B61984B9B681A0E0B6943EAEA
:1029200092130B61C2F3C2030B7502F007034B75E0
:10293000914B9B68C3F3074253098B75C2F3820323
:10294000CB7593075B0F0B768B4B1B89C3F3072269
:102950000B7E43EAD2130B760B695B1C0024C1E9A2
:1029600012340B7ED1E912649B1C012505FA03F396
:10297000DF17A6FB035C04FB03C306FB0733C1E9B7
:1029800012530C7A0123A3400B650027D1E912569C
:102990000B6DA5FB034C06FB03C305FB0733C1E925
:1029A00012432DE0714B1B68022B29D1724B1A790F
:1029B00093069B0A0B61704B9B681A0E0B6943EAE6
:1029C00002230B616C4B9B68C3F307420B691343F3
:1029D0000B61694B1B89C3F307220B695B1C4FF426
:1029E0000074A3FB04344FF480660025A3FB067C2F
:1029F00004FB06C403FB0543C1E9127373100B65A6
:102A0000C2F3801301F8193F93065B0E4B705A4BCB
:102A10001A7A4B7843EAD2134B7002F07F038B7023
:102A2000554BDB681A0ED309CB70C2F341130B71FF
:102A3000C2F382034B7193071B0F8B714E4BDB6804
:102A4000C3F307428B7943EA92138B71C2F34013AD
:102A5000CB7100230B7202F001034B72464B9B8932
:102A6000C3F30722D3098B72C2F38013CB72C2F374
:102A700040130B73C2F300134B73C2F381038B73C8
:102A800002F00303CB733C4B1A7B53080B740123F6
:102A90004B743A4B1B681A0ECA741939374B1B68B2
:102AA000C3F307421402CC85344B1B88C3F30722BF
:102AB000CB8D1343CB85314B1A7814060C635B68BE
:102AC0001A0E0B6B43EA02440C632C4B5B68C3F396
:102AD00007420B6B43EA02240C63284B9B88C3F329
:102AE00007220B6B13430B63244B1A7934235A547C
:102AF000224B9B681A0E35235A54204B9B68C3F314
:102B0000074214068C631D4B1B89C3F307228B6B92
:102B100043EA02448C63194B1A7A8B6B43EA022412
:102B20008C63164BDB681A0E8B6B13438B63134B52
:102B3000DB68C3F307423C235B5C43EA12143C238B
:102B40005C5413071C0DCC870C4B9B89C3F30722E5
:102B5000CB8F1343CB87094B1A7B540840235C541B
:102B6000012441235C54F0BDC02F0020B405002097
:102B7000A82F0020B8050020202F0020302F002093
:102B800070B50025FC48046801E0FB48046804F0C7
:102B900045000028F9D004F0040028B103250420E2
:102BA0000CF082FC284670BD04F0010028B101251C
:102BB00001200CF079FC2846F5E740F2FF500CF0BC
:102BC00073FC2846EFE72DE9F04106460F464FF02B
:102BD0000008E948056801E0E748056805F0450098
:102BE0000028F9D005F0040038B14FF003080420A4
:102BF0000CF05AFC4046BDE8F08105F0010030B110
:102C00004FF0010801200CF04FFC4046F3E70CF0B8
:102C100075FAB04203D04FF010084046EBE740F29F
:102C2000FF500CF041FC00200CF06DFA044604F457
:102C3000604018B9200C38804046DCE704F40050AE
:102C400008B11320D7E704F4804008B11020D2E780
:102C500004F4004008B10F20CDE74046CBE738B57B
:102C60000024012000900CF0F2F910B92524204630
:102C700038BDC2480068042828D00020C049086038
:102C800002204860C02088600020C8604FF4806047
:102C9000086108460CF0E1F9FFF772FF04460CB139
:102CA0002046E5E700200CF02EFAB6490860042023
:102CB0000CF029FAB349486008200CF024FAB14915
:102CC00088600C200CF01FFAAE49C860AB48006861
:102CD00058B1AA480068012807D0A848006806280B
:102CE00003D0A6480068022816D10020A449086035
:102CF00003204860402088600020C8604FF4806056
:102D0000086108460CF0A9F969460320FFF75BFF4C
:102D100004460CB12046ABE79848006804282ED042
:102D2000BDF8000098490860BDF80000000494490F
:102D3000086009204860C02088600020C8604FF407
:102D40008060086108460CF088F9FFF719FF044617
:102D50000CB120468CE700200CF0D5F98B490860B7
:102D600004200CF0D0F98949486008200CF0CBF918
:102D7000864988600C200CF0C6F98449C86000249C
:102D8000204675E770B500257B48046801E07A4865
:102D9000046804F045000028F9D004F0040028B1CC
:102DA000032504200CF080FB284670BD40F2FF5044
:102DB0000CF07AFB2846F8E770B500264FF48055F2
:102DC0006D48046802E06D1E6B48046804F045001D
:102DD00008B9002DF7D115B104F0040028B103267D
:102DE00004200CF061FB304670BD04F0400028B1B7
:102DF000002640200CF058FB3046F5E73046F3E75C
:102E000070B500254FF4805400E0641E24B180208A
:102E10000CF0F6FA0028F8D014B90325284670BD46
:102E200040F2FF500CF040FB2846F8E7F8B50020D0
:102E300000900025002400260027762054490875BC
:102E40000020086048608860C860086108460CF08F
:102E500082F803200CF0ECF801200CF0DBF80020E5
:102E60004749086048608860C8604FF48060086126
:102E700008460CF0F2F8FFF7C3FF00909DF8000041
:102E800010B19DF80000F8BD4FF4D5703C490860C2
:102E900008204860402088600020C8604FF48060AF
:102EA000086108460CF0D9F8FFF786FF00909DF8FE
:102EB000000020B9012031490860870712E0002096
:102EC0002F49086037204860402088600020C86093
:102ED0004FF48060086108460CF0BFF83720FFF718
:102EE0007DFA009000202649086037204860402085
:102EF00088600020C8604FF48060086108460CF0CC
:102F0000ACF83720FFF76AFA00909DF8000000281F
:102F100061D14BE000201A4908603720486040200A
:102F200088600020C8604FF48060086108460CF09B
:102F300094F83720FFF752FA00909DF8000010B186
:102F40009DF800009FE7134838430D490860292089
:102F50004860402088600020C8604FF480600861AD
:102F600008460CF07AF8FFF70DFF00909DF800007E
:102F700090B19DF8000086E7342C0140B405002094
:102F8000C02F0020302F0020B8050020202F002067
:102F9000A82F00200000108000200CF0B4F8054697
:102FA000012080EAD57080F00106641C1EB94FF63E
:102FB000FF708442AED34FF6FF70844204D31B20CF
:102FC00000909DF800005EE705F08040050002D00B
:102FD0000220FE4908609DF8000054E708B54FF450
:102FE000C06005F0F3F831208DF8000000208DF866
:102FF00001008DF8020001208DF80300684605F0FD
:1030000000F93B208DF8000001208DF80100684692
:1030100005F0F7F808BD08B500200090FFF7DEFFC7
:103020000BF08EFFFFF702FF00909DF8000010B13B
:103030009DF8000008BDFFF712FE00909DF800000B
:1030400010B19DF80000F5E70020E149087508601F
:1030500048608860C860086108460BF07CFFDD4866
:10306000FFF705FC00909DF8000030B9D949B1F890
:1030700054100804FFF7E3FB00909DF8000020B90E
:103080004FF40060FFF797FB00909DF80000D1E738
:1030900070B50446002514B92625284670BDCE48D3
:1030A00000880004CD4908600D20486040208860F9
:1030B0000020C8604FF48060086108460BF0CDFF27
:1030C0000D20FFF78BF905460DB12846E6E70020F5
:1030D0000CF019F820602846E0E708B501200090C0
:1030E000C102BF4809F073F808B1002000909DF8B4
:1030F000000008BD08B500200090FFF7EEFF012892
:1031000009D16846FFF7C4FF08B1FF2008BD009849
:10311000C0F34320FAE7FF20F8E710B50424FFF7D7
:10312000E9FF0446042C01D1002010BDFF2C01D181
:103130000220FAE70120F8E710B5002400200BF088
:1031400077FF204610BD70B50446002600250020FC
:103150000BF0D9FF00F0007010B10E26304670BDA4
:1031600040209E4908601020486040208860002070
:10317000C8604FF48060086108460BF06EFF1020B5
:10318000FFF72CF906460EB13046E8E79248008872
:103190000004924908603720486040208860002081
:1031A000C8604FF48060086108460BF056FF372076
:1031B000FFF714F906460EB13046D0E74FF0FF3066
:1031C0008849086040204860602088600220C8600C
:1031D000002008610120486108460BF0ACFF002088
:1031E0007E4908600D204860402088600020C8604B
:1031F0004FF48060086108460BF02FFF0D20FFF7A9
:10320000EDF806460EB13046A9E70EE04FF4004057
:103210000CF0F6F848B1002504E00CF011F844F881
:1032200025006D1C082DF8D320346F48006840F24B
:103230002A6108400028E9D008200CF0E1F828B104
:1032400008200CF031F90426304688E702200CF003
:10325000D7F828B102200CF027F9022630467EE785
:1032600020200CF0CDF828B120200CF01DF9062606
:10327000304674E74FF400700CF0C2F830B14FF4F0
:1032800000700CF011F90726304668E74FF0FF3563
:1032900004E00BF0D5FF2060241D6D1E4FF40010DC
:1032A0000CF0AEF808B1002DF3D140F2FF500CF055
:1032B000FBF8304653E770B50446002600254B481E
:1032C000FFF741FF06460EB1304670BD4748007813
:1032D0008509257045480078C0F34015657043485E
:1032E0008578280260804148C578608828436080DE
:1032F0003E480579280660603C484579606840EAA8
:103300000540606039488579606840EA0520606062
:103310003648C5796068284360603448057A25726C
:10332000457A6572807A0509A5723048C57A280207
:10333000A0812E48057BA0892843A0812B48407B93
:103340008508A5732948407B00F00305E5733046E6
:10335000BBE710B500240020204908600C2048601D
:10336000402088600020C8604FF4806008610846F3
:103370000BF073FE0C20FFF731F80446204610BD19
:1033800070B500254FF4803400E0641E18480068D2
:1033900038B91848006820B91748007808B9002CD7
:1033A000F3D1002012490860441E00E0641E0E485C
:1033B000006800F4005008B1002CF7D10F480068F5
:1033C000012820D1FFF7C5FF054619E0B40500200C
:1033D000A82F0020502F0020B8050020C02F00206B
:1033E00000000240D42F0020342C0140402F002048
:1033F000C8050020C4050020C0050020BC05002031
:103400000020FE4908600CB905B9042540F2FF50C0
:103410000CF04AF8FA48007810B1F948007870BD0D
:103420002846FCE730B58FB005460C464FF0FA5100
:10343000F44807F025FA0021F24806F077FDF1483C
:1034400006F006FB4FF000600090EF4801900295F7
:1034500000200390A0080490002005904FF48060A5
:1034600006908000079080000890002009904FF49B
:1034700040300A9004200B9003200C904FF4000081
:103480000D9080100E906946DE4806F0C8FB0122C0
:103490001021DC4807F062FA2021DA4806F001FE2C
:1034A0000121D84806F042FD0FB030BD2DE9F041B2
:1034B00007460D46144600260020D1490870D3491E
:1034C0000860CE490860D04954390860D048006887
:1034D000022801D104026D0ACE4804601020CD49B3
:1034E0004860402088600020C8604FF48060086118
:1034F00008460BF0B2FD1020FEF770FF064616B12D
:103500003046BDE8F0814FF0FF30C34908600846FF
:103510004460902088600220C8600020086101207B
:10352000486108460BF007FEBA4805601120B9490A
:103530004860402088600020C8604FF480600861C7
:1035400008460BF08AFD1120FEF748FF06460EB133
:103550003046D6E7012140F22A300BF02CFF012043
:103560000BF01AFF21463846FFF75CFFFFF708FF14
:103570003046C6E72DE9F04180460D4614461E460A
:10358000002700209E490870A049086001209B493F
:10359000086000209C49543908609D480068022852
:1035A00001D104026D0A9B480460102099494860CB
:1035B000402088600020C8604FF4806008610846A1
:1035C0000BF04BFD1020FEF709FF074617B13846F8
:1035D000BDE8F0814FF0FF308F49086006FB04F032
:1035E0004860902088600220C860002008610120A7
:1035F000486108460BF09FFD86480560122085490A
:103600004860402088600020C8604FF480600861F6
:1036100008460BF022FD1220FEF7E0FE07460FB130
:103620003846D5E7012140F22A300BF0C4FE0120D4
:103630000BF0B2FE06FB04F14046FFF7F3FEFFF786
:103640009FFE3846C4E770B500256C1E00E0641E7E
:103650007248006838B96D48006820B96848007839
:1036600008B9002CF3D100206C490860441E00E02A
:10367000641E65484C38006800F4805008B1002C86
:10368000F6D15E480068012805D1FFF762FE0546C5
:1036900000205A4908600CB905B9042540F2FF50D2
:1036A0000BF002FF5648007810B15548007870BD05
:1036B0002846FCE730B58FB005460C464FF0FA516E
:1036C000504807F0DDF800214E4806F02FFC4D4829
:1036D00006F0BEF94FF0006000904B480190029553
:1036E00040200390A0080490002005904FF48060D3
:1036F00006908000079080000890002009904FF409
:1037000040300A9004200B9003200C904FF40000EE
:103710000D9080100E9069463A4806F080FA01221A
:103720001021384807F01AF92021364806F0B9FC74
:103730000121344806F0FAFB0FB030BD2DE9F0410D
:1037400007460D461446002600202D4908702F49D3
:1037500008602A4908602C49543908602C480068E0
:10376000022801D104026D0A2A4804601020294968
:103770004860402088600020C8604FF48060086185
:1037800008460BF06AFC1020FEF728FE064616B12C
:103790003046BDE8F0811F48056018201D4948608B
:1037A000402088600020C8604FF4806008610846AF
:1037B0000BF053FC1820FEF711FE06460EB1304602
:1037C000E7E74FF0FF301449086008464460902056
:1037D00088600020C86008610120486108460BF03D
:1037E000AAFC012140F22A300BF0E5FD21463846C3
:1037F000FFF760FF01200BF0CFFD11E0BC050020BA
:10380000C005002058640240802C0140C4050020FF
:10381000B4050020C02F0020D42F0020C8050020B0
:10382000FFF711FF3046B4E72DE9F04180460F461F
:1038300015461E4600240020FA490870FA4908601F
:103840000120FA4908600020F9490860F948006839
:10385000022801D105027F0AF74805601020F649C9
:103860004860402088600020C8604FF48060086194
:1038700008460BF0F2FB1020FEF7B0FD044614B131
:103880002046BDE8F081ED4800880004EA49086060
:1038900037204860402088600020C8604FF4806076
:1038A000086108460BF0D9FB3720FEF797FD044668
:1038B0000CB12046E5E7E04806601720DE49486085
:1038C000402088600020C8604FF48060086108468E
:1038D0000BF0C3FB1720FEF781FD04460CB1204618
:1038E000CFE7D54807601920D34948604020886059
:1038F0000020C8604FF48060086108460BF0ADFB03
:103900001920FEF76BFD04460CB12046B9E74FF0D5
:10391000FF30CB49086006FB05F0486090208860C6
:103920000020C86008610120486108460BF003FCD4
:10393000012140F22A300BF03EFD01200BF02CFD5E
:1039400006FB05F14046FFF7B5FEFFF77CFE20467B
:1039500097E7B7480830006800F4405008B10120EC
:1039600070470020FCE77CB504460025002001904C
:103970000090B24800880004AF4908600D204860FC
:10398000402088600020C8604FF4806008610846CD
:103990000BF063FBA64808300068009003E0A448E1
:1039A000083000680090009800F045000028F6D02C
:1039B000009800F0040028B1032504200BF074FDEA
:1039C00028467CBD009800F0010028B101250120A7
:1039D0000BF06AFD2846F4E70BF090FB009000988E
:1039E0000D2802D010252846EBE740F2FF500BF0DF
:1039F0005BFD00200BF087FB01900198C0F3432092
:103A0000207090490198084008B92846D9E70198E4
:103A100000F0004008B11C20D3E7019800F080407E
:103A200008B10920CDE7019800F0005008B10A2044
:103A3000C7E7019800F0805008B10B20C1E701985A
:103A400000F0006008B10C20BBE7019800F0806036
:103A500008B10D20B5E7019800F0807008B10E2084
:103A6000AFE7019800F4000008B10F20A9E7019822
:103A700000F4800008B11020A3E7019800F40010C2
:103A800008B111209DE7019800F4801008B11220C0
:103A900097E7019800F4002008B1132091E70198FE
:103AA00000F4802008B114208BE7019800F4003066
:103AB00008B1152085E7019800F4803008B1162080
:103AC0007FE7019800F4004008B1172079E70198DA
:103AD00000F4804008B1182073E7019800F400500A
:103AE00008B119206DE7019800F0080008B11A200C
:103AF00067E7284665E72DE9FC4106460F460024A6
:103B000000250020019000904F484068202101EAE4
:103B1000105018B925242046BDE8FC8144482838B7
:103B20000068C0B2801C4949B1FBF0F00190002050
:103B30000BF0E9FA00F0007010B10E242046EBE71C
:103B40003C480068022801D1760A7F0A394800689B
:103B500038B138480068012803D036480068022888
:103B60002BD13548066020203349486040208860CA
:103B70000020C8604FF48060086108460BF06DFAC1
:103B80002020FEF72BFC04460CB12046C4E72A484F
:103B90000760212028494860402088600020C860D4
:103BA0004FF48060086108460BF057FA2120FEF7B9
:103BB00015FC04460CB12046AEE700201E49086003
:103BC00026204860402088600020C8604FF4806054
:103BD000086108460BF041FA2620FEF7FFFB044679
:103BE0000CB1204698E7002500E06D1C0198854245
:103BF000FBD36846FFF7B7FE04464FF0FF3504E0FD
:103C00006846FFF7B0FE04466D1E45B13CB99DF80D
:103C100000000728F4D09DF800000628F0D02046C8
:103C20007AE70000C0050020C4050020BC05002084
:103C30002C2C0140B4050020C02F0020B805002026
:103C4000D42F002008E0FFFD202F0020C0D4010069
:103C500010B54FF480700BF038FC50B10020FE49D5
:103C600008704FF480700BF084FC0120FB49086061
:103C700037E002200BF029FC30B102200BF079FC78
:103C80000220F54908702CE008200BF01EFC30B132
:103C900008200BF06EFC0420EF49087021E0202082
:103CA0000BF013FC30B120200BF063FC0620EA4936
:103CB000087016E010200BF008FC30B110200BF05B
:103CC00058FC0520E44908700BE04FF400700BF03D
:103CD000FCFB30B14FF400700BF04BFC0720DE49C9
:103CE000087000214CF23A300BF065FBDA4800789E
:103CF00010BD10B5DA48006800F0C05040B1012096
:103D0000D84908604FF0C251D548583006F0B8FD88
:103D100010BD0146002002E04910421CD0B201292A
:103D2000FAD170471CB501210D2009F021FA0C22AF
:103D30000821CD4808F099FC0C220921CA4808F056
:103D400094FC0C220A21C84808F08FFC0C220B219D
:103D5000C54808F08AFC0C221146C34808F085FCCF
:103D60000C220221C14808F080FC4FF470600090E2
:103D700001208DF8050002208DF8040000208DF848
:103D8000060001208DF807006946B74808F02EF9B3
:103D9000042000906946B54808F028F94FF4805097
:103DA000009000208DF807006946AF4808F01EF922
:103DB0004FF40060009000208DF8040001208DF881
:103DC00007006946AA4808F011F90121C80209F064
:103DD000BEFA0121880509F0CBF91CBD10B5FFF72B
:103DE00037FF10BD10B5FFF784FF10BD10B50446B6
:103DF000002301229FA1A14810F014FF10B1A0A040
:103E000013F01BF8002010BD024600207047014649
:103E1000002070472DE9F05F83460C4615461F468B
:103E2000B9464FF0FF31954810F0A2FF4FF0030A5A
:103E300044E005F0030010B9994885421DD90026D9
:103E400017E0984840683044400200EB44214FF4AA
:103E500000729548FFF72AFB8046B8F1000F00D0AA
:103E600009E005EB46204FF400728F4912F079FC0F
:103E7000761C4E45E5D300BF1AE0B9F1010F0BD116
:103E800088484068400200EB44214FF40072284605
:103E9000FFF70CFB80460BE082484068400200EBD5
:103EA00044214B464FF400722846FFF763FB8046DF
:103EB000B8F1000F00D104E0AAF1010ABAF1000F35
:103EC000B7D100BF6D4810F0FCFFB8F1000F02D170
:103ED0003846BDE8F09F0020FBE72DE9F047824619
:103EE0000C4616469846C1464FF0FF31634810F025
:103EF0003FFF06F0030010B9694886421BD900272E
:103F000015E006EB47214FF40072674812F029FCD8
:103F1000644840683844400200EB44214FF400728A
:103F20006148FFF70BFC054605B102E07F1C4F45D9
:103F3000E7D300BF1AE0B9F1010F0BD1594840682F
:103F4000400200EB44214FF400723046FFF7F6FBCD
:103F500005460BE053484068400200EB44214B46C5
:103F60004FF400723046FFF75FFC0546434810F0FF
:103F7000A8FF15B94046BDE8F0870020FBE72DE912
:103F8000F84306468946154676B90020009040F66B
:103F9000A743464A46A14AA012F04FFF00BF9DF832
:103FA00000000028FBD000BFB9F1100F21D12C4632
:103FB0001CB94FF0FF30BDE8F8834FF4007060602B
:103FC0004748006DA06047480068022805D1444872
:103FD0000069401C800220600AE04148D0F850C0CF
:103FE00062460023D0E91271384655F009F8206086
:103FF00000BF0020DFE770B54FF4007013F024F924
:10400000044604B970BD4FF4007200212046FFF74A
:104010004DFA054655B900222146224816F0A5FC66
:1040200040B100201F494860886003E000201D491E
:1040300048608860204613F0DDFA01202A4908759F
:104040002A4848622A4888622A48C8622A4808637F
:104050002A4848632A4855E0C0050020C4050020CE
:1040600000640240C805002000080240000C024025
:104070000000024073646C6F636B00003C300020F2
:10408000696E6974207364206C6F636B2073656D57
:104090006170686F7265206661696C65640A000012
:1040A000000008202C3000205C300020ECB807080D
:1040B00064657620213D2052545F4E554C4C0000E3
:1040C0002825732920617373657274206661696C99
:1040D00065642061742025733A2564200A0000007D
:1040E000502F0020B4050020EC2F0020ED3D0208E9
:1040F000093E02080F3E0208153E0208DB3E020898
:104100007F3F020888630448C8630F2203A1044864
:1041100010F088FA00BF75E7502F0020736430005C
:10412000EC2F0020012806D0022808D003280AD04E
:10413000042810D10BE00121F94A11700BE0022193
:10414000F74A117007E00321F54A117003E00421DA
:10415000F34A117000BF00BF704710B5F0480078F7
:10416000012806D0022809D003280CD0042814D135
:104170000EE08021EB4808F093F90EE01021EA48A8
:1041800008F08EF909E02021E74808F089F904E0F9
:104190002021E64808F084F900BF00BF10BD10B52B
:1041A0008021E04808F04BF91021DF4808F047F97A
:1041B0002021DD4808F043F92021DC4808F03FF9D0
:1041C00010BD10B54FF40061D94808F069F910BD71
:1041D0002DE9F04107460024802600251BE001213F
:1041E000D44808F05DF907EA060020B10221D14861
:1041F00008F025F903E00221CE4808F051F97610C5
:1042000064000121CB4808F01AF90421C94807F0DD
:10421000DEFF04436D1C082DE1DB2046BDE8F08184
:104220002DE9F041FFF799FF9F20FFF7D1FFA5206F
:10423000FFF7CEFFC5B2A520FFF7CAFFC6B2A52083
:10424000FFF7C6FFC7B2FFF7AAFF280440EA06201F
:1042500040EA07042046BDE8F08110B54FF4006144
:10426000B34808F0ECF810BD10B5FFF7F6FFFFF704
:10427000D7FFB149086008460068B04988420AD1B2
:10428000AFA1AD48001D54F0ADFF4FF08070AA49BA
:10429000486100130883FFF794FF10BD10B5FFF7C6
:1042A0005CFF0620FFF794FFFFF779FF10BD10B504
:1042B000FFF7F4FFFFF751FFC720FFF789FFFFF774
:1042C0006EFFFFF74AFF0520FFF782FF10BD10B514
:1042D000A520FFF77DFF00F0010008B1012010BD0F
:1042E0000020FCE710B5FFF75AFF10BD10B5FFF72F
:1042F00034FF0520FFF76CFF00BFA520FFF768FF24
:1043000000F001000028F8D1FFF749FF10BD10B5FB
:104310000446FFF7C3FFFFF720FF2020FFF758FFF9
:10432000C4F30740FFF754FFC4F30720FFF750FF23
:10433000E0B2FFF74DFFFFF732FFFFF7D7FF10BDE9
:104340002DE9F04106460C4615464FF0000822E0E4
:10435000FFF7A4FFFFF701FF0220FFF739FFC4F3C7
:104360000740FFF735FFC4F30720FFF731FFE0B246
:10437000FFF72EFF002704E016F8010BFFF728FFD8
:104380007F1CFF2FF8D9FFF70AFFFFF7AFFF04F5F7
:10439000807408F10108E91705EB1161B8EB212FD2
:1043A000D6D3FFF7DAFE0420FFF712FFFFF7F7FE80
:1043B000FFF79CFFBDE8F08170B5034600240BE0D9
:1043C00013F8015BE843C5B211F8010B284008B1AE
:1043D000012070BD601C84B29442F1DB0020F8E73C
:1043E0002DE9F04104460E461546601952494969C7
:1043F000884202D90120BDE8F0810DB90020FAE71A
:10440000FFF7ABFE0320FFF7E3FEC4F30740FFF71F
:10441000DFFEC4F30720FFF7DBFEE0B2FFF7D8FEB4
:104420000BE0A520FFF7D4FEC7B216F8011BB94276
:1044300003D0FFF7B4FE0120DDE72800A5F1010558
:10444000EFD1FFF7ACFE0020D5E770B506460C466D
:10445000154625B1601938494969884200D970BDAF
:10446000FFF77BFE0320FFF7B3FEC4F30740FFF71F
:10447000AFFEC4F30720FFF7ABFEE0B2FFF7A8FEE4
:1044800004E0A520FFF7A4FE06F8010B2800A5F123
:104490000105F6D1FFF783FE00BFE0E72DE9F05FED
:1044A00007460D46164616B90120BDE8F09F224882
:1044B0004069A84201D80020F7E71F48008BB042AE
:1044C00001DA0020F1E7324629462048FFF7BDFF18
:1044D000324639461D4854F078FE08B90120E4E719
:1044E0004FF0000A324639461848FFF765FF08B119
:1044F0004FF0010A1048008B401E25EA00080E48C4
:10450000008BB04224D1002404E0385D0F490855E7
:10451000601C84B20848008BA042F6DC29E0000051
:10452000CC0500200000024000080240001C0240B0
:1045300000140240000402405C3200201840EF00EA
:10454000573235513132384256000000783200205F
:104550008248028B41468248FFF777FF7F48008BF5
:10456000401E284084B27E4908193246394654F02C
:10457000DBFD4FF0000B00242AE0BAF1010F02D15D
:104580004046FFF7C4FE7548028B41467448FFF76A
:10459000D7FE324639462846FFF722FF10B94FF0C2
:1045A000010B17E0324639462846FFF719FF10B9CC
:1045B0004FF0010B0EE04FF0000903E009F101009C
:1045C0001FFA80F942F210708145F7DB601C84B25B
:1045D000032CD2DB00BF584667E72DE9F05F0746A2
:1045E0000D4616464FF00008C146C2460024A346B9
:1045F0005A48008BB5FBF0F100FB11501FFA80FA0E
:104600005648008BA0EB0A0084B25448008B96FBFE
:10461000F0F01FFA80F85148008B96FBF0F100FB98
:1046200011601FFA80F94FF400614E4807F007FF50
:10463000BAF1000F2AD1B8F1000F08D1324629464D
:104640003846FFF72BFF00287ED1BDE8F09F0EE033
:104650004248028B29463846FFF720FF08B9002060
:10466000F3E73E48008B05443C48008B07445FEA73
:104670000800A8F101011FFA81F8E9D14A4629464C
:104680003846FFF70BFF002861D1DEE7B8F1000FD5
:104690001FD1A14515DDA9EB04001FFA80FB2246BE
:1046A00029463846FFF7FAFE08B90020CDE7254431
:1046B00027445A4629463846FFF7F0FE002846D1DF
:1046C000C3E7324629463846FFF7E8FEE0BB002044
:1046D000BBE7301B86B22148008B96FBF0F01FFA37
:1046E00080F81E48008B96FBF0F100FB11601FFA6A
:1046F00080F9224629463846FFF7D0FE08B9002047
:10470000A3E7254427440EE01448028B2946384687
:10471000FFF7C4FE08B9002097E71048008B054456
:104720000E48008B07445FEA0800A8F101011FFA58
:1047300081F8E9D1B9F1000F09D04A462946384637
:10474000FFF7ACFE00B900E001E000207DE74FF488
:104750000061044807F0A4FE012076E75C320020E7
:10476000783200200014024010B58AB00446207848
:104770008DF8000000208DF801003220ADF8020015
:1047800003208DF804004FF4FA70ADF80600002005
:10479000ADF80800ADF80A00ADF80C00ADF80E0059
:1047A000ADF810001E20ADF812000020ADF8140086
:1047B000ADF81600ADF818004FF4FA70ADF81A0015
:1047C00001208DF81C0000208DF81D008DF81E00C2
:1047D000089028226946204654F0A6FC0AB010BD75
:1047E00010B58AB0044620788DF8000002208DF8BC
:1047F00001003220ADF8020003208DF804004FF4D0
:10480000FA70ADF806000020ADF80800ADF80A0017
:10481000ADF80C00ADF80E00ADF81000ADF81200C8
:104820001E20ADF814000020ADF81600ADF81800F9
:10483000ADF81A008DF81C008DF81D008DF81E00D3
:10484000089028226946204654F06EFC0AB010BD3C
:1048500010B588B0044620788DF8040006208DF845
:1048600005006420ADF80600ADF808000020ADF8A2
:104870000A00ADF80C00ADF80E00ADF810001E20D7
:10488000ADF812000020ADF814004FF4FA70ADF846
:10489000160000208DF818008DF819008DF81A0008
:1048A0001C2201A9204654F03FFC08B010BD10B5F1
:1048B0008CB0044620788DF8000007208DF80100A8
:1048C0004FF49670ADF8020003208DF804004FF409
:1048D000FA70ADF806000020ADF80800ADF80A0047
:1048E0001E20ADF80C000020ADF80E004FF4FA7059
:1048F000ADF8100000208DF812008DF813008DF82F
:1049000014008DF815008DF816008DF81700ADF81D
:10491000180006208DF81A0040F69800ADF81C002B
:1049200000208DF81E0001208DF81F0000208DF85A
:1049300020008DF821008DF822008DF823008DF8DD
:1049400024008DF825008DF826008DF827008DF8BD
:1049500028008DF8290030226946204654F0E4FBF7
:104960000CB010BD10B58AB0044620788DF8040054
:1049700004208DF805003220ADF8060000208DF8E7
:1049800008000390642004900020ADF81400ADF8F6
:104990001600ADF818001E20ADF81A000020ADF882
:1049A0001C008DF81E008DF81F008DF820008DF87A
:1049B0002100242201A9204654F0B6FB0AB010BD04
:1049C00010B58AB0044620788DF8040009208DF8CF
:1049D00005004FF44870ADF806004FF4FA70ADF8DA
:1049E00008000020ADF80A0040F6B830ADF80C0021
:1049F0000020ADF80E004FF47A70ADF810000020E2
:104A0000ADF812001E20ADF816000020ADF8180019
:104A10004FF41670ADF81A0000208DF81C008DF8C8
:104A20001D008DF81E000890242201A9204654F094
:104A30007BFB0AB010BD10B58EB0044620788DF80F
:104A4000040001208DF805003220ADF80600032097
:104A50008DF808004FF4FA70ADF80A000020ADF8A8
:104A60000C00ADF80E00ADF81000ADF81200ADF876
:104A700014001E20ADF816000020ADF81800ADF8A7
:104A80001A00ADF81C004FF4FA70ADF81E000120BA
:104A90008DF8200000208DF821008DF822008DF87F
:104AA00023006420ADF82800ADF82A000020ADF8FE
:104AB0002C00ADF82E004FF4FA70ADF8300034221F
:104AC00001A9204654F030FB0EB010BD10B58EB0D9
:104AD000044620788DF8000003208DF80100322074
:104AE000ADF8020003208DF804004FF4FA70ADF821
:104AF00006000020ADF80800ADF80A00ADF80C0083
:104B0000ADF80E00ADF81000ADF812001E20ADF8A3
:104B100014000020ADF81600ADF81800ADF81A002A
:104B20008DF81C008DF81D008DF81E000890642083
:104B3000ADF82800ADF82A000020ADF82C00ADF843
:104B40002E004FF4FA70ADF8300038226946204646
:104B500054F0EAFA0EB010BD10B58EB0002401205A
:104B60008DF80000F84890F8B40018B16846FFF7D7
:104B7000FBFD36E0F44890F8B50018B16846FFF741
:104B80002FFE2EE0F04890F8B60018B16846FFF707
:104B90005FFE26E0EC4890F8B70018B16846FFF7D2
:104BA00086FE1EE0E84890F8BA0018B16846FFF7A4
:104BB000D9FE16E0E44890F8BB0018B16846FFF74C
:104BC000FFFE0EE0E04890F8B80018B16846FFF725
:104BD00032FF06E0DC4890F8B90010B16846FFF7F4
:104BE00075FFDA4804685CB1D84920680860002085
:104BF0002060A4F138003822694654F095FA01E0AB
:104C00000EB010BDD248806830B1D14880680460D1
:104C1000CF488068606001E0CD484460CC48846043
:104C20000078401CCA49087000BFE9E770B500244D
:104C3000002500264FF42061C64854F08EFA00BFCC
:104C40000DE0C44800EB841000F13805C149601C38
:104C500001EB801000F138062E60601C44B2272C56
:104C6000EFDB0020BA49486088600870B9483830E6
:104C7000B6490860FFF770FF70BD2DE9F0410646A8
:104C8000002400250027A046B1480078012804D15F
:104C9000AF4840683838BDE8F081AD48446807E067
:104CA00014F8380CB04202D14FF0010802E0246839
:104CB000002CF5D100BFB8F1000F01D10020EAE7C8
:104CC000606818B1D4E90001086006E0A0492068D6
:104CD000486008464068A0F13807206818B1D4E958
:104CE0000010486006E09A4960688860084680685D
:104CF000A0F1380717B92068A0F138079448007868
:104D0000401E9349087025462D6805E015F8380CBB
:104D1000401E05F8380C2D68002DF7D1A5F138009C
:104D2000382154F01AFA89480068206087480460E6
:104D30003846B0E770B58EB006460024002584489A
:104D40000078B04202DA601E0EB070BD7F48056880
:104D5000701CC0B28DF800007B4890F8B40018B108
:104D60006846FFF701FD36E0774890F8B50018B1C6
:104D70006846FFF735FD2EE0734890F8B60018B18D
:104D80006846FFF765FD26E06F4890F8B70018B158
:104D90006846FFF78CFD1EE06B4890F8BA0018B12A
:104DA0006846FFF7DFFD16E0674890F8BB0018B1D2
:104DB0006846FFF705FE0EE0634890F8B80018B1AA
:104DC0006846FFF738FE06E05F4890F8B90010B17A
:104DD0006846FFF77BFE4DB15C4928680860A5F185
:104DE00038003822694654F09FF902E06FF0010064
:104DF000AAE75748446805E014F8380CB04200D1DF
:104E000002E02468002CF7D100BF6C6020682860A5
:104E1000206810B12068456001E04D48856025603C
:104E20002C6805E014F8380C401C04F8380C246891
:104E3000002CF7D146480078401C454908700020F6
:104E400082E7F0B58FB006460F46002400254048A3
:104E50000078B04203DB3E480078B84203DA4FF0F6
:104E6000FF300FB0F0BD3A48446805E014F8380C44
:104E7000B04200D102E02468002CF7D100BF3448D2
:104E8000456805E015F8380CB84200D102E02D68FD
:104E9000002DF7D100BF04F8387C05F8386CA4F178
:104EA0003801382201A854F03FF9A5F13801A4F1E6
:104EB0003800382254F038F9A5F13800382201A919
:104EC00054F032F90020CCE701460020204A506817
:104ED00005E010F8382C8A4200D102E00068002872
:104EE000F7D100BF70470246492A01D801210FE0DF
:104EF000922A01D802210BE0DB2A01D8032107E026
:104F0000B2F5927F01D8042102E04FF0FF307047E4
:104F10000846FCE72DE9F047044600250026002757
:104F2000A946AA4604EB84000B4901EBC00090F8A7
:104F300016804046FFF7D7FF814609F1010068B9A6
:104F4000681EBDE8F0870000BC010020D0050020ED
:104F5000784C002078420020502000200120FFF7EC
:104F6000E1F8CE48456800261DE0492E02D1002612
:104F7000781C07B24FF4003202EB843202EB0732A6
:104F8000C6EBC60302EBC301A5F138003822FFF7D8
:104F900024FB8246BAF1000F02D14FF0FF30D0E778
:104FA0002D68701C06B2002DDFD10020C9E72DE965
:104FB000F0438FB00646002500240027A14606EBEB
:104FC0008600B74901EBC00090F81680B8F1280FB1
:104FD00003DD601E0FB0BDE8F0831FFA88F0FFF715
:104FE00082FF814609F1010010B94FF0FF30F1E76F
:104FF000002405E0611CC8B2FFF79CFE601C04B2EF
:10500000A8F10100A042F5DC0120FFF78BF8A348CE
:10501000456800241BE0492C04D100244F4501DAE7
:10502000781C07B24FF4003000EB863000EB0730FD
:10503000382202FB040101A8FFF707FAA5F13800A6
:10504000382201A954F070F82D68601C04B20DB12B
:105050004445E0DB91484568002412E015F8381C0F
:10506000601C814202D04FF0FF30B3E7A5F1380059
:1050700040780C2802DD4FF0FF30ABE72D68601C54
:1050800004B21DB185480078A042E7DC0020A1E70A
:105090002DE9F04705460C4616464FF00008C1467C
:1050A0000027BA46012C02DA781EBDE8F0872046B8
:1050B000FFF719FF00F0FF08A8F1010A4920B4FB2F
:1050C000F0F100FB114007B207B949270120FFF7B3
:1050D00029F84FF4003000EB85304FF4805202FB8A
:1050E0000A02781EC0EBC00002EBC0013822304635
:1050F000FFF773FA8146B9F1000F01D00020D4E721
:105100004FF0FF30D1E72DE9F04705460C46164633
:105110004FF000080027B946012C02DA781EBDE8DE
:10512000F0872046FFF7DFFE00F0FF08A8F1010935
:105130004920B4FBF0F100FB114007B207B9492741
:105140000120FEF7EFFF4FF4003000EB85304FF405
:10515000805202FB0902781EC0EBC00002EBC001C6
:1051600038223046FFF771F90020D8E72DE9F041E9
:10517000002633250120FEF7D5FF00240FE022038F
:1051800002F580316622624302EB8202444B03EB5C
:10519000C2004FF47F62FFF720FA601C44B2B442B1
:1051A000EDDB7DB105EB8503DB041A0C230303F56E
:1051B00080316623634303EB8303394F07EBC3005E
:1051C000FFF70BFA0020BDE8F08170B5044601201E
:1051D000FEF7A8FF6620B4FBF0F04FF4803101EB3E
:1051E00000306621B4FBF1F201FB1241282202FBE0
:1051F000010504EB84012A4A02EBC100282229465A
:10520000FFF7EBF9002070BD2DE9F04100263325B2
:1052100000240FE0220302F580316622624302EB94
:1052200082021F4B03EBC2004FF47F62FFF70DF9C0
:10523000601C44B2B442EDDB75B105EB8503DA00C6
:10524000230303F580316623634303EB8303144F89
:1052500007EBC300FFF7F9F80020BDE8F08170B557
:1052600004460120FEF75EFF6620B4FBF0F04FF429
:10527000803101EB00306621B4FBF1F201FB1241F9
:10528000282202FB010504EB8401054A02EBC10060
:1052900028222946FFF7D9F8002070BD784C00205D
:1052A0005020002010B50120FB4908700822FBA106
:1052B000F948401C11F005FB0020F7494875012012
:1052C0008875F8A00FF088F904462CB1F24A17321D
:1052D000102120460FF0FFFA0020EF49887708845C
:1052E00002204884888410BD10B50120FEF71AFF03
:1052F00050224FF47041EC48FFF76FF910BD4FF0AA
:10530000A530E94908600020087108720021E648CC
:10531000C1600174417441610A20E34908760021AB
:10532000E14841768176C176017741778177C1770F
:1053300080F8201080F821100020DB4981F822003D
:105340000021D94880F8231080F8241080F8251017
:10535000012180F82610002180F8271080F82810FD
:105360000020D149C8620021CF48016341638163B5
:10537000C163016441648164C164704710B5FFF783
:10538000BEFFFFF7B1FF10BD10B50120FEF7CAFE4A
:1053900050224FF47041C448FFF757F810BD10B5C4
:1053A000FFF7F2FFC0480068B0F1A53F04D0FFF757
:1053B000E5FFFFF799FF07E0BB48007C20B900201C
:1053C000B9490871FFF790FF0020B749487110BD37
:1053D00010B5FFF7E4FF0120FEF7A4FE1422002120
:1053E000B248FFF732F8B1480068B0F1A53F1BD0D2
:1053F000FFF758FFFFF71AFCFFF7B8FE0020FFF792
:1054000089FD4FF0A530A94908604FF080704860D1
:10541000002088604FF48050C8600020086114228A
:105420000021A248FFF7D9F8FFF700FCFFF7ECFED8
:105430009E49087CFFF7BBFD002211469CA015F099
:1054400031FD04461C229D49204615F07CFD204676
:1054500015F057FD99488069B0F1A53F20D0002094
:105460009649086048604FF4FA5088607420C8601C
:105470004FF480500861002048614FF0A5308861EA
:10548000002240F201118AA015F00CFD04461C22F6
:105490008A49204615F07FFD204615F032FD00BFF9
:1054A00010BD10B500208549086048604FF4FA50DF
:1054B00088607420C8604FF4805008610020486103
:1054C0004FF0A5308861002240F2011178A015F05C
:1054D000E9FC04461C227949204615F05CFD204673
:1054E00015F00FFD76A015F0D5FD002010BD70B5AC
:1054F000044672480068A04216D90022114670A0E6
:1055000015F0D0FC0546742004FB00F1002228466B
:1055100015F069FD74226E49284615F014FD2846E1
:1055200015F0EFFC6A4870BD0020FCE770B504463A
:105530006248406961498968884238D2002240F255
:1055400001115FA015F0AEFC05465C48406974226D
:1055500000FB02F10022284615F045FD7422214689
:10556000284615F018FD284615F0CBFC5348006876
:10557000401C5249086008464069401C486194F844
:105580002F0018B908464068401C4860002240F2CD
:10559000011147A015F086FC05461C224749284604
:1055A00015F0F9FC284615F0ACFC002070BD204633
:1055B000FCE72DE9F04FA1B005460F46144698468A
:1055C0002AAE96E8400E3948006900EB8000324A66
:1055D00002EBC000411C01A853F004FE082D79D253
:1055E000DFE805F0048B1C8B798B31446088ADF8C3
:1055F0001800ADF81A60E088ADF81C002089ADF8FD
:105600001E00208BADF82000608BADF82200608A70
:10561000ADF824002079ADF826006FE06088ADF881
:105620001800ADF81A60E088ADF81C002089ADF8CC
:105630001E00608BADF82000A08AADF82400207910
:10564000ADF826005AE06088ADF81A00A088ADF8E1
:105650001C00E088ADF81E00608AADF82200E089E9
:10566000ADF824000020ADF8260047E06088ADF8D2
:105670001800A08BADF81A00E088ADF81C00208956
:10568000ADF81E00208AADF82200A089ADF82400F4
:105690002079ADF8260031E0502000206465666175
:1056A000756C74007274630000200020844C00202C
:1056B0002F2F696E666F2E62696E0000984C002075
:1056C0002F2F726573756C742E62696E0000000076
:1056D000B44C002011E06088ADF81800208980B239
:1056E000ADF81C00A08980B2ADF81E00E08AADF8CC
:1056F00024002079ADF8260000E000BF00BFC248BA
:105700000078401EC0B28DF83000C048006900EB40
:105710008000BF4901EBC000807D8DF831008DF81D
:1057200032508DF83370AFF284000EF055FF2090A8
:105730001EAA102120980FF0CEF89DF878008DF861
:1057400034009DF879108DF835109DF87A108DF899
:1057500036109DF87C108DF838109DF87D108DF86E
:1057600039109DF87E108DF83A10ADF83C80ADF8F8
:105770003E60ADF84090CDF844A0ADF848B0A548E3
:105780000078012806D12822A3490DF14E0053F0DC
:10579000CBFC04E028210DF14E0053F0DEFC01A803
:1057A000FFF7C4FE21B0BDE8F08F2DE9F04FA1B0A6
:1057B00005460E4614461F46DDE92CABDDE92A8975
:1057C0009248006900EB8000914A02EBC000411C46
:1057D00001A853F007FD012D02D0032D26D112E0C0
:1057E000A08CADF81A00E08CADF81C00208DADF84F
:1057F0001E00A08DADF82200608AADF824000020C4
:10580000ADF8260013E0208DADF81A00608DADF8DC
:105810001C00A08DADF81E00208EADF82200A08ADD
:10582000ADF824000020ADF8260000E000BF00BF66
:1058300075480078401EC0B28DF83000734800698A
:1058400000EB8000724901EBC000807D8DF83100D3
:105850008DF832508DF83360AFF2B8100EF0BCFE08
:1058600020901EAA102120980FF035F89DF878009E
:105870008DF834009DF879108DF835109DF87A1068
:105880008DF836109DF87C108DF838109DF87D103D
:105890008DF839109DF87E108DF83A10ADF83C70F7
:1058A000ADF83E80ADF84090CDF844A0ADF848B0DA
:1058B00058480078012806D1282257490DF14E009A
:1058C00053F032FC04E028210DF14E0053F045FC6A
:1058D00001A8FFF72BFE21B0BDE8F08F2DE9F04FB6
:1058E000A1B005460E4614461F46DDE92CABDDE9A6
:1058F0002A894648006900EB8000454A02EBC00057
:10590000411C01A853F06EFC6088ADF8180000201F
:10591000ADF81A00A088ADF81C00E088ADF81E00B4
:105920002089ADF828006089ADF82A00A089ADF87B
:105930002C00E089ADF82E000020ADF82000E08AB0
:10594000ADF82200608AADF824000020ADF82600F2
:105950002D480078401EC0B28DF830002B480069F9
:1059600000EB80002A4901EBC000807D8DF83100FA
:105970008DF832508DF83360AFF2D8200EF02CFE47
:1059800020901EAA102120980EF0A5FF9DF8780007
:105990008DF834009DF879108DF835109DF87A1047
:1059A0008DF836109DF87C108DF838109DF87D101C
:1059B0008DF839109DF87E108DF83A10ADF83C70D6
:1059C000ADF83E800020ADF840001190ADF84A904F
:1059D0001FFA8AF0ADF84C00ADF848B00D480078D9
:1059E000012806D128220C490DF14E0053F09CFBF2
:1059F00004E028210DF14E0053F0AFFB01A8FFF7A2
:105A000095FD21B0BDE8F08F17000020844C0020E8
:105A100050200020000000203858002002460020BE
:105A2000704710B50446002010BD08B56946002037
:105A300008F04FFA9DF8030000F5FA6008BD08B5BC
:105A40006946002008F045FA9DF8010008BD08B538
:105A50006946002008F03DFA9DF8020008BD08B52F
:105A60006946002008F036F99DF8000008BD08B529
:105A70006946002008F02EF99DF8010008BD08B520
:105A80006946002008F026F99DF8020008BDFEB521
:105A900005460E4617463C466DB9002000904E2341
:105AA0008E4A8FA192A011F0C8F900BF9DF80000A6
:105AB0000028FBD000BF102E02D0112E3CD11DE0DB
:105AC00001A9002008F006F902A9002008F001FA57
:105AD0009DF80B0020709DF8090060709DF80A0089
